{
  "contractName": "AccountInfo",
  "abi": [
    {
      "constant": false,
      "inputs": [
        {
          "name": "name",
          "type": "string"
        },
        {
          "name": "nid",
          "type": "string"
        },
        {
          "name": "seederBank",
          "type": "string"
        }
      ],
      "name": "accountInit",
      "outputs": [
        {
          "name": "",
          "type": "bool"
        }
      ],
      "payable": false,
      "stateMutability": "nonpayable",
      "type": "function"
    },
    {
      "constant": false,
      "inputs": [
        {
          "name": "nid",
          "type": "string"
        },
        {
          "name": "dob",
          "type": "string"
        }
      ],
      "name": "setDOB",
      "outputs": [
        {
          "name": "",
          "type": "bool"
        }
      ],
      "payable": false,
      "stateMutability": "nonpayable",
      "type": "function"
    },
    {
      "constant": false,
      "inputs": [
        {
          "name": "nid",
          "type": "string"
        },
        {
          "name": "mobile",
          "type": "string"
        }
      ],
      "name": "setMobileNumber",
      "outputs": [
        {
          "name": "",
          "type": "bool"
        }
      ],
      "payable": false,
      "stateMutability": "nonpayable",
      "type": "function"
    },
    {
      "constant": false,
      "inputs": [
        {
          "name": "nid",
          "type": "string"
        },
        {
          "name": "caddress",
          "type": "string"
        }
      ],
      "name": "setCurrentAddress",
      "outputs": [
        {
          "name": "",
          "type": "bool"
        }
      ],
      "payable": false,
      "stateMutability": "nonpayable",
      "type": "function"
    },
    {
      "constant": false,
      "inputs": [
        {
          "name": "nid",
          "type": "string"
        },
        {
          "name": "fatherName",
          "type": "string"
        }
      ],
      "name": "setFatherName",
      "outputs": [
        {
          "name": "",
          "type": "bool"
        }
      ],
      "payable": false,
      "stateMutability": "nonpayable",
      "type": "function"
    },
    {
      "constant": false,
      "inputs": [
        {
          "name": "nid",
          "type": "string"
        },
        {
          "name": "gender",
          "type": "string"
        }
      ],
      "name": "setGender",
      "outputs": [
        {
          "name": "",
          "type": "bool"
        }
      ],
      "payable": false,
      "stateMutability": "nonpayable",
      "type": "function"
    },
    {
      "constant": true,
      "inputs": [
        {
          "name": "nid",
          "type": "string"
        }
      ],
      "name": "getName",
      "outputs": [
        {
          "name": "",
          "type": "string"
        }
      ],
      "payable": false,
      "stateMutability": "view",
      "type": "function"
    },
    {
      "constant": true,
      "inputs": [
        {
          "name": "nid",
          "type": "string"
        }
      ],
      "name": "getDOB",
      "outputs": [
        {
          "name": "",
          "type": "string"
        }
      ],
      "payable": false,
      "stateMutability": "view",
      "type": "function"
    },
    {
      "constant": true,
      "inputs": [
        {
          "name": "nid",
          "type": "string"
        }
      ],
      "name": "getMobileNumber",
      "outputs": [
        {
          "name": "",
          "type": "string"
        }
      ],
      "payable": false,
      "stateMutability": "view",
      "type": "function"
    },
    {
      "constant": true,
      "inputs": [
        {
          "name": "nid",
          "type": "string"
        }
      ],
      "name": "getCurrentAddress",
      "outputs": [
        {
          "name": "",
          "type": "string"
        }
      ],
      "payable": false,
      "stateMutability": "view",
      "type": "function"
    },
    {
      "constant": true,
      "inputs": [
        {
          "name": "nid",
          "type": "string"
        }
      ],
      "name": "getFatherName",
      "outputs": [
        {
          "name": "",
          "type": "string"
        }
      ],
      "payable": false,
      "stateMutability": "view",
      "type": "function"
    },
    {
      "constant": true,
      "inputs": [
        {
          "name": "nid",
          "type": "string"
        }
      ],
      "name": "getGender",
      "outputs": [
        {
          "name": "",
          "type": "string"
        }
      ],
      "payable": false,
      "stateMutability": "view",
      "type": "function"
    },
    {
      "constant": true,
      "inputs": [
        {
          "name": "nid",
          "type": "string"
        }
      ],
      "name": "getSeederBank",
      "outputs": [
        {
          "name": "",
          "type": "string"
        }
      ],
      "payable": false,
      "stateMutability": "view",
      "type": "function"
    }
  ],
  "bytecode": "0x608060405234801561001057600080fd5b50612447806100206000396000f3006080604052600436106100c5576000357c0100000000000000000000000000000000000000000000000000000000900463ffffffff16806304d0623f146100ca57806314b3ee68146101915780631febec6a1461027357806325caa8d714610355578063465ca6641461043757806361b22f41146105195780636932cf8114610626578063aa9bded714610708578063abfcb425146107cf578063becc6f72146108b1578063c244149014610978578063da2264bb14610a3f578063e8d6221f14610b06575b600080fd5b3480156100d657600080fd5b50610177600480360381019080803590602001908201803590602001908080601f0160208091040260200160405190810160405280939291908181526020018383808284378201915050505050509192919290803590602001908201803590602001908080601f0160208091040260200160405190810160405280939291908181526020018383808284378201915050505050509192919290505050610be8565b604051808215151515815260200191505060405180910390f35b34801561019d57600080fd5b506101f8600480360381019080803590602001908201803590602001908080601f0160208091040260200160405190810160405280939291908181526020018383808284378201915050505050509192919290505050610d5e565b6040518080602001828103825283818151815260200191508051906020019080838360005b8381101561023857808201518184015260208101905061021d565b50505050905090810190601f1680156102655780820380516001836020036101000a031916815260200191505b509250505060405180910390f35b34801561027f57600080fd5b506102da600480360381019080803590602001908201803590602001908080601f0160208091040260200160405190810160405280939291908181526020018383808284378201915050505050509192919290505050610f55565b6040518080602001828103825283818151815260200191508051906020019080838360005b8381101561031a5780820151818401526020810190506102ff565b50505050905090810190601f1680156103475780820380516001836020036101000a031916815260200191505b509250505060405180910390f35b34801561036157600080fd5b506103bc600480360381019080803590602001908201803590602001908080601f016020809104026020016040519081016040528093929190818152602001838380828437820191505050505050919291929050505061114c565b6040518080602001828103825283818151815260200191508051906020019080838360005b838110156103fc5780820151818401526020810190506103e1565b50505050905090810190601f1680156104295780820380516001836020036101000a031916815260200191505b509250505060405180910390f35b34801561044357600080fd5b5061049e600480360381019080803590602001908201803590602001908080601f0160208091040260200160405190810160405280939291908181526020018383808284378201915050505050509192919290505050611343565b6040518080602001828103825283818151815260200191508051906020019080838360005b838110156104de5780820151818401526020810190506104c3565b50505050905090810190601f16801561050b5780820380516001836020036101000a031916815260200191505b509250505060405180910390f35b34801561052557600080fd5b5061060c600480360381019080803590602001908201803590602001908080601f0160208091040260200160405190810160405280939291908181526020018383808284378201915050505050509192919290803590602001908201803590602001908080601f0160208091040260200160405190810160405280939291908181526020018383808284378201915050505050509192919290803590602001908201803590602001908080601f016020809104026020016040519081016040528093929190818152602001838380828437820191505050505050919291929050505061153a565b604051808215151515815260200191505060405180910390f35b34801561063257600080fd5b5061068d600480360381019080803590602001908201803590602001908080601f0160208091040260200160405190810160405280939291908181526020018383808284378201915050505050509192919290505050611739565b6040518080602001828103825283818151815260200191508051906020019080838360005b838110156106cd5780820151818401526020810190506106b2565b50505050905090810190601f1680156106fa5780820380516001836020036101000a031916815260200191505b509250505060405180910390f35b34801561071457600080fd5b506107b5600480360381019080803590602001908201803590602001908080601f0160208091040260200160405190810160405280939291908181526020018383808284378201915050505050509192919290803590602001908201803590602001908080601f0160208091040260200160405190810160405280939291908181526020018383808284378201915050505050509192919290505050611930565b604051808215151515815260200191505060405180910390f35b3480156107db57600080fd5b50610836600480360381019080803590602001908201803590602001908080601f0160208091040260200160405190810160405280939291908181526020018383808284378201915050505050509192919290505050611aa6565b6040518080602001828103825283818151815260200191508051906020019080838360005b8381101561087657808201518184015260208101905061085b565b50505050905090810190601f1680156108a35780820380516001836020036101000a031916815260200191505b509250505060405180910390f35b3480156108bd57600080fd5b5061095e600480360381019080803590602001908201803590602001908080601f0160208091040260200160405190810160405280939291908181526020018383808284378201915050505050509192919290803590602001908201803590602001908080601f0160208091040260200160405190810160405280939291908181526020018383808284378201915050505050509192919290505050611c9d565b604051808215151515815260200191505060405180910390f35b34801561098457600080fd5b50610a25600480360381019080803590602001908201803590602001908080601f0160208091040260200160405190810160405280939291908181526020018383808284378201915050505050509192919290803590602001908201803590602001908080601f0160208091040260200160405190810160405280939291908181526020018383808284378201915050505050509192919290505050611e13565b604051808215151515815260200191505060405180910390f35b348015610a4b57600080fd5b50610aec600480360381019080803590602001908201803590602001908080601f0160208091040260200160405190810160405280939291908181526020018383808284378201915050505050509192919290803590602001908201803590602001908080601f0160208091040260200160405190810160405280939291908181526020018383808284378201915050505050509192919290505050611f89565b604051808215151515815260200191505060405180910390f35b348015610b1257600080fd5b50610b6d600480360381019080803590602001908201803590602001908080601f01602080910402602001604051908101604052809392919081815260200183838082843782019150505050505091929192905050506120ff565b6040518080602001828103825283818151815260200191508051906020019080838360005b83811015610bad578082015181840152602081019050610b92565b50505050905090810190601f168015610bda5780820380516001836020036101000a031916815260200191505b509250505060405180910390f35b600082600080826040518082805190602001908083835b602083101515610c245780518252602082019150602081019050602083039250610bff565b6001836020036101000a038019825116818451168082178552505050505050905001915050908152602001604051809103902060080154111515610cd0576040517f08c379a00000000000000000000000000000000000000000000000000000000081526004018080602001828103825260128152602001807f4163636f756e74206e6f7420657869737473000000000000000000000000000081525060200191505060405180910390fd5b826000856040518082805190602001908083835b602083101515610d095780518252602082019150602081019050602083039250610ce4565b6001836020036101000a03801982511681845116808217855250505050505090500191505090815260200160405180910390206003019080519060200190610d529291906122f6565b50600191505092915050565b606081600080826040518082805190602001908083835b602083101515610d9a5780518252602082019150602081019050602083039250610d75565b6001836020036101000a038019825116818451168082178552505050505050905001915050908152602001604051809103902060080154111515610e46576040517f08c379a00000000000000000000000000000000000000000000000000000000081526004018080602001828103825260128152602001807f4163636f756e74206e6f7420657869737473000000000000000000000000000081525060200191505060405180910390fd5b6000836040518082805190602001908083835b602083101515610e7e5780518252602082019150602081019050602083039250610e59565b6001836020036101000a03801982511681845116808217855250505050505090500191505090815260200160405180910390206003018054600181600116156101000203166002900480601f016020809104026020016040519081016040528092919081815260200182805460018160011615610100020316600290048015610f485780601f10610f1d57610100808354040283529160200191610f48565b820191906000526020600020905b815481529060010190602001808311610f2b57829003601f168201915b5050505050915050919050565b606081600080826040518082805190602001908083835b602083101515610f915780518252602082019150602081019050602083039250610f6c565b6001836020036101000a03801982511681845116808217855250505050505090500191505090815260200160405180910390206008015411151561103d576040517f08c379a00000000000000000000000000000000000000000000000000000000081526004018080602001828103825260128152602001807f4163636f756e74206e6f7420657869737473000000000000000000000000000081525060200191505060405180910390fd5b6000836040518082805190602001908083835b6020831015156110755780518252602082019150602081019050602083039250611050565b6001836020036101000a03801982511681845116808217855250505050505090500191505090815260200160405180910390206002018054600181600116156101000203166002900480601f01602080910402602001604051908101604052809291908181526020018280546001816001161561010002031660029004801561113f5780601f106111145761010080835404028352916020019161113f565b820191906000526020600020905b81548152906001019060200180831161112257829003601f168201915b5050505050915050919050565b606081600080826040518082805190602001908083835b6020831015156111885780518252602082019150602081019050602083039250611163565b6001836020036101000a038019825116818451168082178552505050505050905001915050908152602001604051809103902060080154111515611234576040517f08c379a00000000000000000000000000000000000000000000000000000000081526004018080602001828103825260128152602001807f4163636f756e74206e6f7420657869737473000000000000000000000000000081525060200191505060405180910390fd5b6000836040518082805190602001908083835b60208310151561126c5780518252602082019150602081019050602083039250611247565b6001836020036101000a03801982511681845116808217855250505050505090500191505090815260200160405180910390206007018054600181600116156101000203166002900480601f0160208091040260200160405190810160405280929190818152602001828054600181600116156101000203166002900480156113365780601f1061130b57610100808354040283529160200191611336565b820191906000526020600020905b81548152906001019060200180831161131957829003601f168201915b5050505050915050919050565b606081600080826040518082805190602001908083835b60208310151561137f578051825260208201915060208101905060208303925061135a565b6001836020036101000a03801982511681845116808217855250505050505090500191505090815260200160405180910390206008015411151561142b576040517f08c379a00000000000000000000000000000000000000000000000000000000081526004018080602001828103825260128152602001807f4163636f756e74206e6f7420657869737473000000000000000000000000000081525060200191505060405180910390fd5b6000836040518082805190602001908083835b602083101515611463578051825260208201915060208101905060208303925061143e565b6001836020036101000a03801982511681845116808217855250505050505090500191505090815260200160405180910390206004018054600181600116156101000203166002900480601f01602080910402602001604051908101604052809291908181526020018280546001816001161561010002031660029004801561152d5780601f106115025761010080835404028352916020019161152d565b820191906000526020600020905b81548152906001019060200180831161151057829003601f168201915b5050505050915050919050565b6000610120604051908101604052808581526020018481526020016020604051908101604052806000815250815260200160206040519081016040528060008152508152602001602060405190810160405280600081525081526020016020604051908101604052806000815250815260200160206040519081016040528060008152508152602001838152602001428152506000846040518082805190602001908083835b60208310151561160557805182526020820191506020810190506020830392506115e0565b6001836020036101000a03801982511681845116808217855250505050505090500191505090815260200160405180910390206000820151816000019080519060200190611654929190612376565b506020820151816001019080519060200190611671929190612376565b50604082015181600201908051906020019061168e929190612376565b5060608201518160030190805190602001906116ab929190612376565b5060808201518160040190805190602001906116c8929190612376565b5060a08201518160050190805190602001906116e5929190612376565b5060c0820151816006019080519060200190611702929190612376565b5060e082015181600701908051906020019061171f929190612376565b506101008201518160080155905050600190509392505050565b606081600080826040518082805190602001908083835b6020831015156117755780518252602082019150602081019050602083039250611750565b6001836020036101000a038019825116818451168082178552505050505050905001915050908152602001604051809103902060080154111515611821576040517f08c379a00000000000000000000000000000000000000000000000000000000081526004018080602001828103825260128152602001807f4163636f756e74206e6f7420657869737473000000000000000000000000000081525060200191505060405180910390fd5b6000836040518082805190602001908083835b6020831015156118595780518252602082019150602081019050602083039250611834565b6001836020036101000a03801982511681845116808217855250505050505090500191505090815260200160405180910390206000018054600181600116156101000203166002900480601f0160208091040260200160405190810160405280929190818152602001828054600181600116156101000203166002900480156119235780601f106118f857610100808354040283529160200191611923565b820191906000526020600020905b81548152906001019060200180831161190657829003601f168201915b5050505050915050919050565b600082600080826040518082805190602001908083835b60208310151561196c5780518252602082019150602081019050602083039250611947565b6001836020036101000a038019825116818451168082178552505050505050905001915050908152602001604051809103902060080154111515611a18576040517f08c379a00000000000000000000000000000000000000000000000000000000081526004018080602001828103825260128152602001807f4163636f756e74206e6f7420657869737473000000000000000000000000000081525060200191505060405180910390fd5b826000856040518082805190602001908083835b602083101515611a515780518252602082019150602081019050602083039250611a2c565b6001836020036101000a03801982511681845116808217855250505050505090500191505090815260200160405180910390206004019080519060200190611a9a9291906122f6565b50600191505092915050565b606081600080826040518082805190602001908083835b602083101515611ae25780518252602082019150602081019050602083039250611abd565b6001836020036101000a038019825116818451168082178552505050505050905001915050908152602001604051809103902060080154111515611b8e576040517f08c379a00000000000000000000000000000000000000000000000000000000081526004018080602001828103825260128152602001807f4163636f756e74206e6f7420657869737473000000000000000000000000000081525060200191505060405180910390fd5b6000836040518082805190602001908083835b602083101515611bc65780518252602082019150602081019050602083039250611ba1565b6001836020036101000a03801982511681845116808217855250505050505090500191505090815260200160405180910390206005018054600181600116156101000203166002900480601f016020809104026020016040519081016040528092919081815260200182805460018160011615610100020316600290048015611c905780601f10611c6557610100808354040283529160200191611c90565b820191906000526020600020905b815481529060010190602001808311611c7357829003601f168201915b5050505050915050919050565b600082600080826040518082805190602001908083835b602083101515611cd95780518252602082019150602081019050602083039250611cb4565b6001836020036101000a038019825116818451168082178552505050505050905001915050908152602001604051809103902060080154111515611d85576040517f08c379a00000000000000000000000000000000000000000000000000000000081526004018080602001828103825260128152602001807f4163636f756e74206e6f7420657869737473000000000000000000000000000081525060200191505060405180910390fd5b826000856040518082805190602001908083835b602083101515611dbe5780518252602082019150602081019050602083039250611d99565b6001836020036101000a03801982511681845116808217855250505050505090500191505090815260200160405180910390206002019080519060200190611e079291906122f6565b50600191505092915050565b600082600080826040518082805190602001908083835b602083101515611e4f5780518252602082019150602081019050602083039250611e2a565b6001836020036101000a038019825116818451168082178552505050505050905001915050908152602001604051809103902060080154111515611efb576040517f08c379a00000000000000000000000000000000000000000000000000000000081526004018080602001828103825260128152602001807f4163636f756e74206e6f7420657869737473000000000000000000000000000081525060200191505060405180910390fd5b826000856040518082805190602001908083835b602083101515611f345780518252602082019150602081019050602083039250611f0f565b6001836020036101000a03801982511681845116808217855250505050505090500191505090815260200160405180910390206005019080519060200190611f7d9291906122f6565b50600191505092915050565b600082600080826040518082805190602001908083835b602083101515611fc55780518252602082019150602081019050602083039250611fa0565b6001836020036101000a038019825116818451168082178552505050505050905001915050908152602001604051809103902060080154111515612071576040517f08c379a00000000000000000000000000000000000000000000000000000000081526004018080602001828103825260128152602001807f4163636f756e74206e6f7420657869737473000000000000000000000000000081525060200191505060405180910390fd5b826000856040518082805190602001908083835b6020831015156120aa5780518252602082019150602081019050602083039250612085565b6001836020036101000a038019825116818451168082178552505050505050905001915050908152602001604051809103902060060190805190602001906120f39291906122f6565b50600191505092915050565b606081600080826040518082805190602001908083835b60208310151561213b5780518252602082019150602081019050602083039250612116565b6001836020036101000a0380198251168184511680821785525050505050509050019150509081526020016040518091039020600801541115156121e7576040517f08c379a00000000000000000000000000000000000000000000000000000000081526004018080602001828103825260128152602001807f4163636f756e74206e6f7420657869737473000000000000000000000000000081525060200191505060405180910390fd5b6000836040518082805190602001908083835b60208310151561221f57805182526020820191506020810190506020830392506121fa565b6001836020036101000a03801982511681845116808217855250505050505090500191505090815260200160405180910390206006018054600181600116156101000203166002900480601f0160208091040260200160405190810160405280929190818152602001828054600181600116156101000203166002900480156122e95780601f106122be576101008083540402835291602001916122e9565b820191906000526020600020905b8154815290600101906020018083116122cc57829003601f168201915b5050505050915050919050565b828054600181600116156101000203166002900490600052602060002090601f016020900481019282601f1061233757805160ff1916838001178555612365565b82800160010185558215612365579182015b82811115612364578251825591602001919060010190612349565b5b50905061237291906123f6565b5090565b828054600181600116156101000203166002900490600052602060002090601f016020900481019282601f106123b757805160ff19168380011785556123e5565b828001600101855582156123e5579182015b828111156123e45782518255916020019190600101906123c9565b5b5090506123f291906123f6565b5090565b61241891905b808211156124145760008160009055506001016123fc565b5090565b905600a165627a7a723058201df1f6691f7a3504fb72954ca866b690f9b102debb5ef4bebe5478bf01829ebe0029",
  "source": "pragma solidity ^0.4.23;\r\n\r\n\r\ncontract AccountInfo {\r\n    \r\n    struct Account {\r\n        string name;\r\n        string nid;\r\n        string dob;\r\n        string mobileNumber;\r\n        string currentAddress;\r\n        string fatherName;\r\n        string gender;\r\n        string seederBank;\r\n        uint regUnixTime;\r\n    }\r\n    \r\n    mapping(string => Account) accounts;\r\n    \r\n    modifier isAccountExists(string nid) {\r\n        require(accounts[nid].regUnixTime > 0, \"Account not exists\");\r\n        _;\r\n    }\r\n    \r\n    function accountInit(string name, string nid, string seederBank) public  returns(bool) {\r\n        accounts[nid] = Account(name, nid, \"\", \"\", \"\", \"\", \"\", seederBank, uint(now));\r\n        return true;\r\n    }\r\n    \r\n    \r\n    // setter functions\r\n    \r\n    function setDOB(string nid, string dob) public isAccountExists(nid) returns(bool) {\r\n        accounts[nid].dob = dob;\r\n        return true;\r\n    }\r\n    \r\n    function setMobileNumber(string nid, string mobile) public isAccountExists(nid) returns(bool) {\r\n        accounts[nid].mobileNumber = mobile;\r\n        return true;\r\n    }\r\n    \r\n    function setCurrentAddress(string nid, string caddress) public isAccountExists(nid) returns(bool) {\r\n        accounts[nid].currentAddress = caddress;\r\n        return true;\r\n    }\r\n    \r\n    function setFatherName(string nid, string fatherName) public isAccountExists(nid) returns(bool) {\r\n        accounts[nid].fatherName = fatherName;\r\n        return true;\r\n    }\r\n    \r\n    function setGender(string nid, string gender) public isAccountExists(nid) returns(bool) {\r\n        accounts[nid].gender = gender;\r\n        return true;\r\n    }\r\n    \r\n     // getter functions\r\n     \r\n    function getName(string nid) public view isAccountExists(nid) returns(string) {\r\n        return accounts[nid].name;\r\n    }\r\n     \r\n    function getDOB(string nid) public view isAccountExists(nid) returns(string) {\r\n        return accounts[nid].dob;\r\n    }\r\n     \r\n    function getMobileNumber(string nid) public view isAccountExists(nid) returns(string) {\r\n        return accounts[nid].mobileNumber;\r\n    }\r\n     \r\n    function getCurrentAddress(string nid) public view isAccountExists(nid) returns(string) {\r\n        return accounts[nid].currentAddress;\r\n    }\r\n     \r\n    function getFatherName(string nid) public view isAccountExists(nid) returns(string) {\r\n        return accounts[nid].fatherName;\r\n    }\r\n     \r\n    function getGender(string nid) public view isAccountExists(nid) returns(string) {\r\n        return accounts[nid].gender;\r\n    }\r\n     \r\n    function getSeederBank(string nid) public view isAccountExists(nid) returns(string) {\r\n        return accounts[nid].seederBank;\r\n    }\r\n    \r\n    \r\n}",
  "sourcePath": "E:\\Ethereum Artifacts\\E-KYC\\smart-contract-v3\\contracts\\AccountInfo.sol",
  "compiler": {
    "name": "solc",
    "version": "0.4.24+commit.e67f0147.Emscripten.clang"
  },
  "schemaVersion": "2.0.1",
  "updatedAt": "2018-10-30T11:57:58.926Z"
}