{
  "contractName": "KYC",
  "abi": [
    {
      "inputs": [],
      "payable": false,
      "stateMutability": "nonpayable",
      "type": "constructor"
    },
    {
      "constant": false,
      "inputs": [
        {
          "name": "name",
          "type": "string"
        },
        {
          "name": "uid",
          "type": "string"
        },
        {
          "name": "passcode",
          "type": "string"
        }
      ],
      "name": "registerNewBank",
      "outputs": [
        {
          "name": "",
          "type": "bool"
        }
      ],
      "payable": false,
      "stateMutability": "nonpayable",
      "type": "function"
    },
    {
      "constant": true,
      "inputs": [],
      "name": "getBankCount",
      "outputs": [
        {
          "name": "",
          "type": "uint256"
        }
      ],
      "payable": false,
      "stateMutability": "view",
      "type": "function"
    },
    {
      "constant": true,
      "inputs": [
        {
          "name": "uid",
          "type": "string"
        },
        {
          "name": "passcode",
          "type": "string"
        }
      ],
      "name": "getBankInfo",
      "outputs": [
        {
          "name": "",
          "type": "string"
        }
      ],
      "payable": false,
      "stateMutability": "view",
      "type": "function"
    },
    {
      "constant": false,
      "inputs": [
        {
          "name": "bankUid",
          "type": "string"
        },
        {
          "name": "bankPass",
          "type": "string"
        },
        {
          "name": "nid",
          "type": "string"
        },
        {
          "name": "name",
          "type": "string"
        }
      ],
      "name": "createAccount",
      "outputs": [],
      "payable": false,
      "stateMutability": "nonpayable",
      "type": "function"
    },
    {
      "constant": false,
      "inputs": [
        {
          "name": "bankUid",
          "type": "string"
        },
        {
          "name": "bankPass",
          "type": "string"
        },
        {
          "name": "nid",
          "type": "string"
        },
        {
          "name": "dob",
          "type": "string"
        }
      ],
      "name": "setAccountDOB",
      "outputs": [],
      "payable": false,
      "stateMutability": "nonpayable",
      "type": "function"
    },
    {
      "constant": false,
      "inputs": [
        {
          "name": "bankUid",
          "type": "string"
        },
        {
          "name": "bankPass",
          "type": "string"
        },
        {
          "name": "nid",
          "type": "string"
        },
        {
          "name": "mobile",
          "type": "string"
        }
      ],
      "name": "setAccountMobileNumber",
      "outputs": [],
      "payable": false,
      "stateMutability": "nonpayable",
      "type": "function"
    },
    {
      "constant": false,
      "inputs": [
        {
          "name": "bankUid",
          "type": "string"
        },
        {
          "name": "bankPass",
          "type": "string"
        },
        {
          "name": "nid",
          "type": "string"
        },
        {
          "name": "caddress",
          "type": "string"
        }
      ],
      "name": "setAccountCurrentAddress",
      "outputs": [],
      "payable": false,
      "stateMutability": "nonpayable",
      "type": "function"
    },
    {
      "constant": false,
      "inputs": [
        {
          "name": "bankUid",
          "type": "string"
        },
        {
          "name": "bankPass",
          "type": "string"
        },
        {
          "name": "nid",
          "type": "string"
        },
        {
          "name": "fatherName",
          "type": "string"
        }
      ],
      "name": "setAccountFatherName",
      "outputs": [],
      "payable": false,
      "stateMutability": "nonpayable",
      "type": "function"
    },
    {
      "constant": false,
      "inputs": [
        {
          "name": "bankUid",
          "type": "string"
        },
        {
          "name": "bankPass",
          "type": "string"
        },
        {
          "name": "nid",
          "type": "string"
        },
        {
          "name": "gender",
          "type": "string"
        }
      ],
      "name": "setAccountGender",
      "outputs": [],
      "payable": false,
      "stateMutability": "nonpayable",
      "type": "function"
    },
    {
      "constant": true,
      "inputs": [
        {
          "name": "bankUid",
          "type": "string"
        },
        {
          "name": "bankPass",
          "type": "string"
        },
        {
          "name": "nid",
          "type": "string"
        }
      ],
      "name": "getAccountName",
      "outputs": [
        {
          "name": "",
          "type": "string"
        }
      ],
      "payable": false,
      "stateMutability": "view",
      "type": "function"
    },
    {
      "constant": true,
      "inputs": [
        {
          "name": "bankUid",
          "type": "string"
        },
        {
          "name": "bankPass",
          "type": "string"
        },
        {
          "name": "nid",
          "type": "string"
        }
      ],
      "name": "getAccountDOB",
      "outputs": [
        {
          "name": "",
          "type": "string"
        }
      ],
      "payable": false,
      "stateMutability": "view",
      "type": "function"
    },
    {
      "constant": true,
      "inputs": [
        {
          "name": "bankUid",
          "type": "string"
        },
        {
          "name": "bankPass",
          "type": "string"
        },
        {
          "name": "nid",
          "type": "string"
        }
      ],
      "name": "getAccountMobileNumber",
      "outputs": [
        {
          "name": "",
          "type": "string"
        }
      ],
      "payable": false,
      "stateMutability": "view",
      "type": "function"
    },
    {
      "constant": true,
      "inputs": [
        {
          "name": "bankUid",
          "type": "string"
        },
        {
          "name": "bankPass",
          "type": "string"
        },
        {
          "name": "nid",
          "type": "string"
        }
      ],
      "name": "getAccountCurrentAddress",
      "outputs": [
        {
          "name": "",
          "type": "string"
        }
      ],
      "payable": false,
      "stateMutability": "view",
      "type": "function"
    },
    {
      "constant": true,
      "inputs": [
        {
          "name": "bankUid",
          "type": "string"
        },
        {
          "name": "bankPass",
          "type": "string"
        },
        {
          "name": "nid",
          "type": "string"
        }
      ],
      "name": "getAccountFatherName",
      "outputs": [
        {
          "name": "",
          "type": "string"
        }
      ],
      "payable": false,
      "stateMutability": "view",
      "type": "function"
    },
    {
      "constant": true,
      "inputs": [
        {
          "name": "bankUid",
          "type": "string"
        },
        {
          "name": "bankPass",
          "type": "string"
        },
        {
          "name": "nid",
          "type": "string"
        }
      ],
      "name": "getAccountGender",
      "outputs": [
        {
          "name": "",
          "type": "string"
        }
      ],
      "payable": false,
      "stateMutability": "view",
      "type": "function"
    },
    {
      "constant": true,
      "inputs": [
        {
          "name": "bankUid",
          "type": "string"
        },
        {
          "name": "bankPass",
          "type": "string"
        },
        {
          "name": "nid",
          "type": "string"
        }
      ],
      "name": "getAccountSeederBank",
      "outputs": [
        {
          "name": "",
          "type": "string"
        }
      ],
      "payable": false,
      "stateMutability": "view",
      "type": "function"
    }
  ],
  "bytecode": "0x60806040523480156200001157600080fd5b50336000806101000a81548173ffffffffffffffffffffffffffffffffffffffff021916908373ffffffffffffffffffffffffffffffffffffffff1602179055506200005c620000c0565b604051809103906000f08015801562000079573d6000803e3d6000fd5b50600160006101000a81548173ffffffffffffffffffffffffffffffffffffffff021916908373ffffffffffffffffffffffffffffffffffffffff160217905550620000d1565b604051612467806200600583390190565b615f2480620000e16000396000f3006080604052600436106100e6576000357c0100000000000000000000000000000000000000000000000000000000900463ffffffff168063267911b4146100eb5780632b816bd7146102595780632e44715d146103c75780633bdc94aa146103f25780633e7298e11461056057806343f3e562146106ce5780634ae060981461079a57806359478dc3146108d55780636f6ce0b114610a105780639125870c14610b4b578063979ac48e14610cb9578063b76ccee414610df4578063bf917cda14610e77578063dc9e3cd514610fb2578063f0dde089146110ed578063fa77b5db1461125b575b600080fd5b3480156100f757600080fd5b506101de600480360381019080803590602001908201803590602001908080601f0160208091040260200160405190810160405280939291908181526020018383808284378201915050505050509192919290803590602001908201803590602001908080601f0160208091040260200160405190810160405280939291908181526020018383808284378201915050505050509192919290803590602001908201803590602001908080601f01602080910402602001604051908101604052809392919081815260200183838082843782019150505050505091929192905050506113c9565b6040518080602001828103825283818151815260200191508051906020019080838360005b8381101561021e578082015181840152602081019050610203565b50505050905090810190601f16801561024b5780820380516001836020036101000a031916815260200191505b509250505060405180910390f35b34801561026557600080fd5b5061034c600480360381019080803590602001908201803590602001908080601f0160208091040260200160405190810160405280939291908181526020018383808284378201915050505050509192919290803590602001908201803590602001908080601f0160208091040260200160405190810160405280939291908181526020018383808284378201915050505050509192919290803590602001908201803590602001908080601f0160208091040260200160405190810160405280939291908181526020018383808284378201915050505050509192919290505050611875565b6040518080602001828103825283818151815260200191508051906020019080838360005b8381101561038c578082015181840152602081019050610371565b50505050905090810190601f1680156103b95780820380516001836020036101000a031916815260200191505b509250505060405180910390f35b3480156103d357600080fd5b506103dc611d21565b6040518082815260200191505060405180910390f35b3480156103fe57600080fd5b506104e5600480360381019080803590602001908201803590602001908080601f0160208091040260200160405190810160405280939291908181526020018383808284378201915050505050509192919290803590602001908201803590602001908080601f0160208091040260200160405190810160405280939291908181526020018383808284378201915050505050509192919290803590602001908201803590602001908080601f0160208091040260200160405190810160405280939291908181526020018383808284378201915050505050509192919290505050611df2565b6040518080602001828103825283818151815260200191508051906020019080838360005b8381101561052557808201518184015260208101905061050a565b50505050905090810190601f1680156105525780820380516001836020036101000a031916815260200191505b509250505060405180910390f35b34801561056c57600080fd5b50610653600480360381019080803590602001908201803590602001908080601f0160208091040260200160405190810160405280939291908181526020018383808284378201915050505050509192919290803590602001908201803590602001908080601f0160208091040260200160405190810160405280939291908181526020018383808284378201915050505050509192919290803590602001908201803590602001908080601f016020809104026020016040519081016040528093929190818152602001838380828437820191505050505050919291929050505061229e565b6040518080602001828103825283818151815260200191508051906020019080838360005b83811015610693578082015181840152602081019050610678565b50505050905090810190601f1680156106c05780820380516001836020036101000a031916815260200191505b509250505060405180910390f35b3480156106da57600080fd5b5061071f60048036038101908080359060200190820180359060200191909192939192939080359060200190820180359060200191909192939192939050505061274a565b6040518080602001828103825283818151815260200191508051906020019080838360005b8381101561075f578082015181840152602081019050610744565b50505050905090810190601f16801561078c5780820380516001836020036101000a031916815260200191505b509250505060405180910390f35b3480156107a657600080fd5b506108d3600480360381019080803590602001908201803590602001908080601f0160208091040260200160405190810160405280939291908181526020018383808284378201915050505050509192919290803590602001908201803590602001908080601f0160208091040260200160405190810160405280939291908181526020018383808284378201915050505050509192919290803590602001908201803590602001908080601f0160208091040260200160405190810160405280939291908181526020018383808284378201915050505050509192919290803590602001908201803590602001908080601f0160208091040260200160405190810160405280939291908181526020018383808284378201915050505050509192919290505050612bfe565b005b3480156108e157600080fd5b50610a0e600480360381019080803590602001908201803590602001908080601f0160208091040260200160405190810160405280939291908181526020018383808284378201915050505050509192919290803590602001908201803590602001908080601f0160208091040260200160405190810160405280939291908181526020018383808284378201915050505050509192919290803590602001908201803590602001908080601f0160208091040260200160405190810160405280939291908181526020018383808284378201915050505050509192919290803590602001908201803590602001908080601f01602080910402602001604051908101604052809392919081815260200183838082843782019150505050505091929192905050506132dc565b005b348015610a1c57600080fd5b50610b49600480360381019080803590602001908201803590602001908080601f0160208091040260200160405190810160405280939291908181526020018383808284378201915050505050509192919290803590602001908201803590602001908080601f0160208091040260200160405190810160405280939291908181526020018383808284378201915050505050509192919290803590602001908201803590602001908080601f0160208091040260200160405190810160405280939291908181526020018383808284378201915050505050509192919290803590602001908201803590602001908080601f0160208091040260200160405190810160405280939291908181526020018383808284378201915050505050509192919290505050613796565b005b348015610b5757600080fd5b50610c3e600480360381019080803590602001908201803590602001908080601f0160208091040260200160405190810160405280939291908181526020018383808284378201915050505050509192919290803590602001908201803590602001908080601f0160208091040260200160405190810160405280939291908181526020018383808284378201915050505050509192919290803590602001908201803590602001908080601f0160208091040260200160405190810160405280939291908181526020018383808284378201915050505050509192919290505050613c50565b6040518080602001828103825283818151815260200191508051906020019080838360005b83811015610c7e578082015181840152602081019050610c63565b50505050905090810190601f168015610cab5780820380516001836020036101000a031916815260200191505b509250505060405180910390f35b348015610cc557600080fd5b50610df2600480360381019080803590602001908201803590602001908080601f0160208091040260200160405190810160405280939291908181526020018383808284378201915050505050509192919290803590602001908201803590602001908080601f0160208091040260200160405190810160405280939291908181526020018383808284378201915050505050509192919290803590602001908201803590602001908080601f0160208091040260200160405190810160405280939291908181526020018383808284378201915050505050509192919290803590602001908201803590602001908080601f01602080910402602001604051908101604052809392919081815260200183838082843782019150505050505091929192905050506140fc565b005b348015610e0057600080fd5b50610e5d6004803603810190808035906020019082018035906020019190919293919293908035906020019082018035906020019190919293919293908035906020019082018035906020019190919293919293905050506145b6565b604051808215151515815260200191505060405180910390f35b348015610e8357600080fd5b50610fb0600480360381019080803590602001908201803590602001908080601f0160208091040260200160405190810160405280939291908181526020018383808284378201915050505050509192919290803590602001908201803590602001908080601f0160208091040260200160405190810160405280939291908181526020018383808284378201915050505050509192919290803590602001908201803590602001908080601f0160208091040260200160405190810160405280939291908181526020018383808284378201915050505050509192919290803590602001908201803590602001908080601f0160208091040260200160405190810160405280939291908181526020018383808284378201915050505050509192919290505050614b65565b005b348015610fbe57600080fd5b506110eb600480360381019080803590602001908201803590602001908080601f0160208091040260200160405190810160405280939291908181526020018383808284378201915050505050509192919290803590602001908201803590602001908080601f0160208091040260200160405190810160405280939291908181526020018383808284378201915050505050509192919290803590602001908201803590602001908080601f0160208091040260200160405190810160405280939291908181526020018383808284378201915050505050509192919290803590602001908201803590602001908080601f016020809104026020016040519081016040528093929190818152602001838380828437820191505050505050919291929050505061501f565b005b3480156110f957600080fd5b506111e0600480360381019080803590602001908201803590602001908080601f0160208091040260200160405190810160405280939291908181526020018383808284378201915050505050509192919290803590602001908201803590602001908080601f0160208091040260200160405190810160405280939291908181526020018383808284378201915050505050509192919290803590602001908201803590602001908080601f01602080910402602001604051908101604052809392919081815260200183838082843782019150505050505091929192905050506154d9565b6040518080602001828103825283818151815260200191508051906020019080838360005b83811015611220578082015181840152602081019050611205565b50505050905090810190601f16801561124d5780820380516001836020036101000a031916815260200191505b509250505060405180910390f35b34801561126757600080fd5b5061134e600480360381019080803590602001908201803590602001908080601f0160208091040260200160405190810160405280939291908181526020018383808284378201915050505050509192919290803590602001908201803590602001908080601f0160208091040260200160405190810160405280939291908181526020018383808284378201915050505050509192919290803590602001908201803590602001908080601f0160208091040260200160405190810160405280939291908181526020018383808284378201915050505050509192919290505050615985565b6040518080602001828103825283818151815260200191508051906020019080838360005b8381101561138e578082015181840152602081019050611373565b50505050905090810190601f1680156113bb5780820380516001836020036101000a031916815260200191505b509250505060405180910390f35b60608060008090505b600280549050811015611869576002866040518082805190602001908083835b60208310151561141757805182526020820191506020810190506020830392506113f2565b6001836020036101000a0380198251168184511680821785525050505050509050019150506020604051808303816000865af115801561145b573d6000803e3d6000fd5b5050506040513d602081101561147057600080fd5b8101908080519060200190929190505050600019166002808381548110151561149557fe5b906000526020600020906003020160010160405180828054600181600116156101000203166002900480156115015780601f106114df576101008083540402835291820191611501565b820191906000526020600020905b8154815290600101906020018083116114ed575b50509150506020604051808303816000865af1158015611525573d6000803e3d6000fd5b5050506040513d602081101561153a57600080fd5b8101908080519060200190929190505050600019161480156116c957506002856040518082805190602001908083835b60208310151561158f578051825260208201915060208101905060208303925061156a565b6001836020036101000a0380198251168184511680821785525050505050509050019150506020604051808303816000865af11580156115d3573d6000803e3d6000fd5b5050506040513d60208110156115e857600080fd5b8101908080519060200190929190505050600019166002808381548110151561160d57fe5b906000526020600020906003020160020160405180828054600181600116156101000203166002900480156116795780601f10611657576101008083540402835291820191611679565b820191906000526020600020905b815481529060010190602001808311611665575b50509150506020604051808303816000865af115801561169d573d6000803e3d6000fd5b5050506040513d60208110156116b257600080fd5b810190808051906020019092919050505060001916145b1561185c57600160009054906101000a900473ffffffffffffffffffffffffffffffffffffffff1673ffffffffffffffffffffffffffffffffffffffff166325caa8d7856040518263ffffffff167c01000000000000000000000000000000000000000000000000000000000281526004018080602001828103825283818151815260200191508051906020019080838360005b8381101561177857808201518184015260208101905061175d565b50505050905090810190601f1680156117a55780820380516001836020036101000a031916815260200191505b5092505050600060405180830381600087803b1580156117c457600080fd5b505af11580156117d8573d6000803e3d6000fd5b505050506040513d6000823e3d601f19601f82011682018060405250602081101561180257600080fd5b81019080805164010000000081111561181a57600080fd5b8281019050602081018481111561183057600080fd5b815185600182028301116401000000008211171561184d57600080fd5b50509291905050509150611869565b80806001019150506113d2565b81925050509392505050565b60608060008090505b600280549050811015611d15576002866040518082805190602001908083835b6020831015156118c3578051825260208201915060208101905060208303925061189e565b6001836020036101000a0380198251168184511680821785525050505050509050019150506020604051808303816000865af1158015611907573d6000803e3d6000fd5b5050506040513d602081101561191c57600080fd5b8101908080519060200190929190505050600019166002808381548110151561194157fe5b906000526020600020906003020160010160405180828054600181600116156101000203166002900480156119ad5780601f1061198b5761010080835404028352918201916119ad565b820191906000526020600020905b815481529060010190602001808311611999575b50509150506020604051808303816000865af11580156119d1573d6000803e3d6000fd5b5050506040513d60208110156119e657600080fd5b810190808051906020019092919050505060001916148015611b7557506002856040518082805190602001908083835b602083101515611a3b5780518252602082019150602081019050602083039250611a16565b6001836020036101000a0380198251168184511680821785525050505050509050019150506020604051808303816000865af1158015611a7f573d6000803e3d6000fd5b5050506040513d6020811015611a9457600080fd5b81019080805190602001909291905050506000191660028083815481101515611ab957fe5b90600052602060002090600302016002016040518082805460018160011615610100020316600290048015611b255780601f10611b03576101008083540402835291820191611b25565b820191906000526020600020905b815481529060010190602001808311611b11575b50509150506020604051808303816000865af1158015611b49573d6000803e3d6000fd5b5050506040513d6020811015611b5e57600080fd5b810190808051906020019092919050505060001916145b15611d0857600160009054906101000a900473ffffffffffffffffffffffffffffffffffffffff1673ffffffffffffffffffffffffffffffffffffffff16631febec6a856040518263ffffffff167c01000000000000000000000000000000000000000000000000000000000281526004018080602001828103825283818151815260200191508051906020019080838360005b83811015611c24578082015181840152602081019050611c09565b50505050905090810190601f168015611c515780820380516001836020036101000a031916815260200191505b5092505050600060405180830381600087803b158015611c7057600080fd5b505af1158015611c84573d6000803e3d6000fd5b505050506040513d6000823e3d601f19601f820116820180604052506020811015611cae57600080fd5b810190808051640100000000811115611cc657600080fd5b82810190506020810184811115611cdc57600080fd5b8151856001820283011164010000000082111715611cf957600080fd5b50509291905050509150611d15565b808060010191505061187e565b81925050509392505050565b60008060009054906101000a900473ffffffffffffffffffffffffffffffffffffffff1673ffffffffffffffffffffffffffffffffffffffff163373ffffffffffffffffffffffffffffffffffffffff16141515611de7576040517f08c379a000000000000000000000000000000000000000000000000000000000815260040180806020018281038252600e8152602001807f4e6f7420417574686f72697a656400000000000000000000000000000000000081525060200191505060405180910390fd5b600280549050905090565b60608060008090505b600280549050811015612292576002866040518082805190602001908083835b602083101515611e405780518252602082019150602081019050602083039250611e1b565b6001836020036101000a0380198251168184511680821785525050505050509050019150506020604051808303816000865af1158015611e84573d6000803e3d6000fd5b5050506040513d6020811015611e9957600080fd5b81019080805190602001909291905050506000191660028083815481101515611ebe57fe5b90600052602060002090600302016001016040518082805460018160011615610100020316600290048015611f2a5780601f10611f08576101008083540402835291820191611f2a565b820191906000526020600020905b815481529060010190602001808311611f16575b50509150506020604051808303816000865af1158015611f4e573d6000803e3d6000fd5b5050506040513d6020811015611f6357600080fd5b8101908080519060200190929190505050600019161480156120f257506002856040518082805190602001908083835b602083101515611fb85780518252602082019150602081019050602083039250611f93565b6001836020036101000a0380198251168184511680821785525050505050509050019150506020604051808303816000865af1158015611ffc573d6000803e3d6000fd5b5050506040513d602081101561201157600080fd5b8101908080519060200190929190505050600019166002808381548110151561203657fe5b906000526020600020906003020160020160405180828054600181600116156101000203166002900480156120a25780601f106120805761010080835404028352918201916120a2565b820191906000526020600020905b81548152906001019060200180831161208e575b50509150506020604051808303816000865af11580156120c6573d6000803e3d6000fd5b5050506040513d60208110156120db57600080fd5b810190808051906020019092919050505060001916145b1561228557600160009054906101000a900473ffffffffffffffffffffffffffffffffffffffff1673ffffffffffffffffffffffffffffffffffffffff1663abfcb425856040518263ffffffff167c01000000000000000000000000000000000000000000000000000000000281526004018080602001828103825283818151815260200191508051906020019080838360005b838110156121a1578082015181840152602081019050612186565b50505050905090810190601f1680156121ce5780820380516001836020036101000a031916815260200191505b5092505050600060405180830381600087803b1580156121ed57600080fd5b505af1158015612201573d6000803e3d6000fd5b505050506040513d6000823e3d601f19601f82011682018060405250602081101561222b57600080fd5b81019080805164010000000081111561224357600080fd5b8281019050602081018481111561225957600080fd5b815185600182028301116401000000008211171561227657600080fd5b50509291905050509150612292565b8080600101915050611dfb565b81925050509392505050565b60608060008090505b60028054905081101561273e576002866040518082805190602001908083835b6020831015156122ec57805182526020820191506020810190506020830392506122c7565b6001836020036101000a0380198251168184511680821785525050505050509050019150506020604051808303816000865af1158015612330573d6000803e3d6000fd5b5050506040513d602081101561234557600080fd5b8101908080519060200190929190505050600019166002808381548110151561236a57fe5b906000526020600020906003020160010160405180828054600181600116156101000203166002900480156123d65780601f106123b45761010080835404028352918201916123d6565b820191906000526020600020905b8154815290600101906020018083116123c2575b50509150506020604051808303816000865af11580156123fa573d6000803e3d6000fd5b5050506040513d602081101561240f57600080fd5b81019080805190602001909291905050506000191614801561259e57506002856040518082805190602001908083835b602083101515612464578051825260208201915060208101905060208303925061243f565b6001836020036101000a0380198251168184511680821785525050505050509050019150506020604051808303816000865af11580156124a8573d6000803e3d6000fd5b5050506040513d60208110156124bd57600080fd5b810190808051906020019092919050505060001916600280838154811015156124e257fe5b9060005260206000209060030201600201604051808280546001816001161561010002031660029004801561254e5780601f1061252c57610100808354040283529182019161254e565b820191906000526020600020905b81548152906001019060200180831161253a575b50509150506020604051808303816000865af1158015612572573d6000803e3d6000fd5b5050506040513d602081101561258757600080fd5b810190808051906020019092919050505060001916145b1561273157600160009054906101000a900473ffffffffffffffffffffffffffffffffffffffff1673ffffffffffffffffffffffffffffffffffffffff16636932cf81856040518263ffffffff167c01000000000000000000000000000000000000000000000000000000000281526004018080602001828103825283818151815260200191508051906020019080838360005b8381101561264d578082015181840152602081019050612632565b50505050905090810190601f16801561267a5780820380516001836020036101000a031916815260200191505b5092505050600060405180830381600087803b15801561269957600080fd5b505af11580156126ad573d6000803e3d6000fd5b505050506040513d6000823e3d601f19601f8201168201806040525060208110156126d757600080fd5b8101908080516401000000008111156126ef57600080fd5b8281019050602081018481111561270557600080fd5b815185600182028301116401000000008211171561272257600080fd5b5050929190505050915061273e565b80806001019150506122a7565b81925050509392505050565b6060612754615e31565b60008090505b600280549050811015612bed5760028787604051808383808284378201915050925050506020604051808303816000865af115801561279d573d6000803e3d6000fd5b5050506040513d60208110156127b257600080fd5b810190808051906020019092919050505060001916600280838154811015156127d757fe5b906000526020600020906003020160010160405180828054600181600116156101000203166002900480156128435780601f10612821576101008083540402835291820191612843565b820191906000526020600020905b81548152906001019060200180831161282f575b50509150506020604051808303816000865af1158015612867573d6000803e3d6000fd5b5050506040513d602081101561287c57600080fd5b8101908080519060200190929190505050600019161480156129c5575060028585604051808383808284378201915050925050506020604051808303816000865af11580156128cf573d6000803e3d6000fd5b5050506040513d60208110156128e457600080fd5b8101908080519060200190929190505050600019166002808381548110151561290957fe5b906000526020600020906003020160020160405180828054600181600116156101000203166002900480156129755780601f10612953576101008083540402835291820191612975565b820191906000526020600020905b815481529060010190602001808311612961575b50509150506020604051808303816000865af1158015612999573d6000803e3d6000fd5b5050506040513d60208110156129ae57600080fd5b810190808051906020019092919050505060001916145b15612be0576002818154811015156129d957fe5b906000526020600020906003020160606040519081016040529081600082018054600181600116156101000203166002900480601f016020809104026020016040519081016040528092919081815260200182805460018160011615610100020316600290048015612a8c5780601f10612a6157610100808354040283529160200191612a8c565b820191906000526020600020905b815481529060010190602001808311612a6f57829003601f168201915b50505050508152602001600182018054600181600116156101000203166002900480601f016020809104026020016040519081016040528092919081815260200182805460018160011615610100020316600290048015612b2e5780601f10612b0357610100808354040283529160200191612b2e565b820191906000526020600020905b815481529060010190602001808311612b1157829003601f168201915b50505050508152602001600282018054600181600116156101000203166002900480601f016020809104026020016040519081016040528092919081815260200182805460018160011615610100020316600290048015612bd05780601f10612ba557610100808354040283529160200191612bd0565b820191906000526020600020905b815481529060010190602001808311612bb357829003601f168201915b5050505050815250509150612bed565b808060010191505061275a565b816000015192505050949350505050565b600082600015156004826040518082805190602001908083835b602083101515612c3d5780518252602082019150602081019050602083039250612c18565b6001836020036101000a038019825116818451168082178552505050505050905001915050908152602001604051809103902060009054906101000a900460ff161515141515612cf5576040517f08c379a000000000000000000000000000000000000000000000000000000000815260040180806020018281038252600e8152602001807f4163636f756e742065786973747300000000000000000000000000000000000081525060200191505060405180910390fd5b600091505b6002805490508210156132d4576002866040518082805190602001908083835b602083101515612d3f5780518252602082019150602081019050602083039250612d1a565b6001836020036101000a0380198251168184511680821785525050505050509050019150506020604051808303816000865af1158015612d83573d6000803e3d6000fd5b5050506040513d6020811015612d9857600080fd5b81019080805190602001909291905050506000191660028084815481101515612dbd57fe5b90600052602060002090600302016001016040518082805460018160011615610100020316600290048015612e295780601f10612e07576101008083540402835291820191612e29565b820191906000526020600020905b815481529060010190602001808311612e15575b50509150506020604051808303816000865af1158015612e4d573d6000803e3d6000fd5b5050506040513d6020811015612e6257600080fd5b810190808051906020019092919050505060001916148015612ff157506002856040518082805190602001908083835b602083101515612eb75780518252602082019150602081019050602083039250612e92565b6001836020036101000a0380198251168184511680821785525050505050509050019150506020604051808303816000865af1158015612efb573d6000803e3d6000fd5b5050506040513d6020811015612f1057600080fd5b81019080805190602001909291905050506000191660028084815481101515612f3557fe5b90600052602060002090600302016002016040518082805460018160011615610100020316600290048015612fa15780601f10612f7f576101008083540402835291820191612fa1565b820191906000526020600020905b815481529060010190602001808311612f8d575b50509150506020604051808303816000865af1158015612fc5573d6000803e3d6000fd5b5050506040513d6020811015612fda57600080fd5b810190808051906020019092919050505060001916145b156132c757600160009054906101000a900473ffffffffffffffffffffffffffffffffffffffff1673ffffffffffffffffffffffffffffffffffffffff166361b22f41848660028681548110151561304557fe5b90600052602060002090600302016000016040518463ffffffff167c010000000000000000000000000000000000000000000000000000000002815260040180806020018060200180602001848103845287818151815260200191508051906020019080838360005b838110156130c95780820151818401526020810190506130ae565b50505050905090810190601f1680156130f65780820380516001836020036101000a031916815260200191505b50848103835286818151815260200191508051906020019080838360005b8381101561312f578082015181840152602081019050613114565b50505050905090810190601f16801561315c5780820380516001836020036101000a031916815260200191505b508481038252858181546001816001161561010002031660029004815260200191508054600181600116156101000203166002900480156131de5780601f106131b3576101008083540402835291602001916131de565b820191906000526020600020905b8154815290600101906020018083116131c157829003601f168201915b50509650505050505050602060405180830381600087803b15801561320257600080fd5b505af1158015613216573d6000803e3d6000fd5b505050506040513d602081101561322c57600080fd5b81019080805190602001909291905050505060016004856040518082805190602001908083835b6020831015156132785780518252602082019150602081019050602083039250613253565b6001836020036101000a038019825116818451168082178552505050505050905001915050908152602001604051809103902060006101000a81548160ff0219169083151502179055506132d4565b8180600101925050612cfa565b505050505050565b60008090505b60028054905081101561378f576002856040518082805190602001908083835b6020831015156133275780518252602082019150602081019050602083039250613302565b6001836020036101000a0380198251168184511680821785525050505050509050019150506020604051808303816000865af115801561336b573d6000803e3d6000fd5b5050506040513d602081101561338057600080fd5b810190808051906020019092919050505060001916600280838154811015156133a557fe5b906000526020600020906003020160010160405180828054600181600116156101000203166002900480156134115780601f106133ef576101008083540402835291820191613411565b820191906000526020600020905b8154815290600101906020018083116133fd575b50509150506020604051808303816000865af1158015613435573d6000803e3d6000fd5b5050506040513d602081101561344a57600080fd5b8101908080519060200190929190505050600019161480156135d957506002846040518082805190602001908083835b60208310151561349f578051825260208201915060208101905060208303925061347a565b6001836020036101000a0380198251168184511680821785525050505050509050019150506020604051808303816000865af11580156134e3573d6000803e3d6000fd5b5050506040513d60208110156134f857600080fd5b8101908080519060200190929190505050600019166002808381548110151561351d57fe5b906000526020600020906003020160020160405180828054600181600116156101000203166002900480156135895780601f10613567576101008083540402835291820191613589565b820191906000526020600020905b815481529060010190602001808311613575575b50509150506020604051808303816000865af11580156135ad573d6000803e3d6000fd5b5050506040513d60208110156135c257600080fd5b810190808051906020019092919050505060001916145b1561378257600160009054906101000a900473ffffffffffffffffffffffffffffffffffffffff1673ffffffffffffffffffffffffffffffffffffffff1663becc6f7284846040518363ffffffff167c0100000000000000000000000000000000000000000000000000000000028152600401808060200180602001838103835285818151815260200191508051906020019080838360005b8381101561368d578082015181840152602081019050613672565b50505050905090810190601f1680156136ba5780820380516001836020036101000a031916815260200191505b50838103825284818151815260200191508051906020019080838360005b838110156136f35780820151818401526020810190506136d8565b50505050905090810190601f1680156137205780820380516001836020036101000a031916815260200191505b50945050505050602060405180830381600087803b15801561374157600080fd5b505af1158015613755573d6000803e3d6000fd5b505050506040513d602081101561376b57600080fd5b81019080805190602001909291905050505061378f565b80806001019150506132e2565b5050505050565b60008090505b600280549050811015613c49576002856040518082805190602001908083835b6020831015156137e157805182526020820191506020810190506020830392506137bc565b6001836020036101000a0380198251168184511680821785525050505050509050019150506020604051808303816000865af1158015613825573d6000803e3d6000fd5b5050506040513d602081101561383a57600080fd5b8101908080519060200190929190505050600019166002808381548110151561385f57fe5b906000526020600020906003020160010160405180828054600181600116156101000203166002900480156138cb5780601f106138a95761010080835404028352918201916138cb565b820191906000526020600020905b8154815290600101906020018083116138b7575b50509150506020604051808303816000865af11580156138ef573d6000803e3d6000fd5b5050506040513d602081101561390457600080fd5b810190808051906020019092919050505060001916148015613a9357506002846040518082805190602001908083835b6020831015156139595780518252602082019150602081019050602083039250613934565b6001836020036101000a0380198251168184511680821785525050505050509050019150506020604051808303816000865af115801561399d573d6000803e3d6000fd5b5050506040513d60208110156139b257600080fd5b810190808051906020019092919050505060001916600280838154811015156139d757fe5b90600052602060002090600302016002016040518082805460018160011615610100020316600290048015613a435780601f10613a21576101008083540402835291820191613a43565b820191906000526020600020905b815481529060010190602001808311613a2f575b50509150506020604051808303816000865af1158015613a67573d6000803e3d6000fd5b5050506040513d6020811015613a7c57600080fd5b810190808051906020019092919050505060001916145b15613c3c57600160009054906101000a900473ffffffffffffffffffffffffffffffffffffffff1673ffffffffffffffffffffffffffffffffffffffff166304d0623f84846040518363ffffffff167c0100000000000000000000000000000000000000000000000000000000028152600401808060200180602001838103835285818151815260200191508051906020019080838360005b83811015613b47578082015181840152602081019050613b2c565b50505050905090810190601f168015613b745780820380516001836020036101000a031916815260200191505b50838103825284818151815260200191508051906020019080838360005b83811015613bad578082015181840152602081019050613b92565b50505050905090810190601f168015613bda5780820380516001836020036101000a031916815260200191505b50945050505050602060405180830381600087803b158015613bfb57600080fd5b505af1158015613c0f573d6000803e3d6000fd5b505050506040513d6020811015613c2557600080fd5b810190808051906020019092919050505050613c49565b808060010191505061379c565b5050505050565b60608060008090505b6002805490508110156140f0576002866040518082805190602001908083835b602083101515613c9e5780518252602082019150602081019050602083039250613c79565b6001836020036101000a0380198251168184511680821785525050505050509050019150506020604051808303816000865af1158015613ce2573d6000803e3d6000fd5b5050506040513d6020811015613cf757600080fd5b81019080805190602001909291905050506000191660028083815481101515613d1c57fe5b90600052602060002090600302016001016040518082805460018160011615610100020316600290048015613d885780601f10613d66576101008083540402835291820191613d88565b820191906000526020600020905b815481529060010190602001808311613d74575b50509150506020604051808303816000865af1158015613dac573d6000803e3d6000fd5b5050506040513d6020811015613dc157600080fd5b810190808051906020019092919050505060001916148015613f5057506002856040518082805190602001908083835b602083101515613e165780518252602082019150602081019050602083039250613df1565b6001836020036101000a0380198251168184511680821785525050505050509050019150506020604051808303816000865af1158015613e5a573d6000803e3d6000fd5b5050506040513d6020811015613e6f57600080fd5b81019080805190602001909291905050506000191660028083815481101515613e9457fe5b90600052602060002090600302016002016040518082805460018160011615610100020316600290048015613f005780601f10613ede576101008083540402835291820191613f00565b820191906000526020600020905b815481529060010190602001808311613eec575b50509150506020604051808303816000865af1158015613f24573d6000803e3d6000fd5b5050506040513d6020811015613f3957600080fd5b810190808051906020019092919050505060001916145b156140e357600160009054906101000a900473ffffffffffffffffffffffffffffffffffffffff1673ffffffffffffffffffffffffffffffffffffffff166314b3ee68856040518263ffffffff167c01000000000000000000000000000000000000000000000000000000000281526004018080602001828103825283818151815260200191508051906020019080838360005b83811015613fff578082015181840152602081019050613fe4565b50505050905090810190601f16801561402c5780820380516001836020036101000a031916815260200191505b5092505050600060405180830381600087803b15801561404b57600080fd5b505af115801561405f573d6000803e3d6000fd5b505050506040513d6000823e3d601f19601f82011682018060405250602081101561408957600080fd5b8101908080516401000000008111156140a157600080fd5b828101905060208101848111156140b757600080fd5b81518560018202830111640100000000821117156140d457600080fd5b505092919050505091506140f0565b8080600101915050613c59565b81925050509392505050565b60008090505b6002805490508110156145af576002856040518082805190602001908083835b6020831015156141475780518252602082019150602081019050602083039250614122565b6001836020036101000a0380198251168184511680821785525050505050509050019150506020604051808303816000865af115801561418b573d6000803e3d6000fd5b5050506040513d60208110156141a057600080fd5b810190808051906020019092919050505060001916600280838154811015156141c557fe5b906000526020600020906003020160010160405180828054600181600116156101000203166002900480156142315780601f1061420f576101008083540402835291820191614231565b820191906000526020600020905b81548152906001019060200180831161421d575b50509150506020604051808303816000865af1158015614255573d6000803e3d6000fd5b5050506040513d602081101561426a57600080fd5b8101908080519060200190929190505050600019161480156143f957506002846040518082805190602001908083835b6020831015156142bf578051825260208201915060208101905060208303925061429a565b6001836020036101000a0380198251168184511680821785525050505050509050019150506020604051808303816000865af1158015614303573d6000803e3d6000fd5b5050506040513d602081101561431857600080fd5b8101908080519060200190929190505050600019166002808381548110151561433d57fe5b906000526020600020906003020160020160405180828054600181600116156101000203166002900480156143a95780601f106143875761010080835404028352918201916143a9565b820191906000526020600020905b815481529060010190602001808311614395575b50509150506020604051808303816000865af11580156143cd573d6000803e3d6000fd5b5050506040513d60208110156143e257600080fd5b810190808051906020019092919050505060001916145b156145a257600160009054906101000a900473ffffffffffffffffffffffffffffffffffffffff1673ffffffffffffffffffffffffffffffffffffffff1663aa9bded784846040518363ffffffff167c0100000000000000000000000000000000000000000000000000000000028152600401808060200180602001838103835285818151815260200191508051906020019080838360005b838110156144ad578082015181840152602081019050614492565b50505050905090810190601f1680156144da5780820380516001836020036101000a031916815260200191505b50838103825284818151815260200191508051906020019080838360005b838110156145135780820151818401526020810190506144f8565b50505050905090810190601f1680156145405780820380516001836020036101000a031916815260200191505b50945050505050602060405180830381600087803b15801561456157600080fd5b505af1158015614575573d6000803e3d6000fd5b505050506040513d602081101561458b57600080fd5b8101908080519060200190929190505050506145af565b8080600101915050614102565b5050505050565b60006145c0615e31565b6000809054906101000a900473ffffffffffffffffffffffffffffffffffffffff1673ffffffffffffffffffffffffffffffffffffffff163373ffffffffffffffffffffffffffffffffffffffff16141515614684576040517f08c379a000000000000000000000000000000000000000000000000000000000815260040180806020018281038252600e8152602001807f4e6f7420417574686f72697a656400000000000000000000000000000000000081525060200191505060405180910390fd5b87878080601f01602080910402602001604051908101604052809392919081815260200183838082843782019150505050505086868080601f01602080910402602001604051908101604052809392919081815260200183838082843782019150505050505085858080601f0160208091040260200160405190810160405280939291908181526020018383808284378201915050505050506060806060859250849150839050600015156003866040518082805190602001908083835b6020831015156147675780518252602082019150602081019050602083039250614742565b6001836020036101000a038019825116818451168082178552505050505050905001915050908152602001604051809103902060009054906101000a900460ff16151514151561481f576040517f08c379a000000000000000000000000000000000000000000000000000000000815260040180806020018281038252600a8152602001807f554944206578697374730000000000000000000000000000000000000000000081525060200191505060405180910390fd5b60008351111515614898576040517f08c379a00000000000000000000000000000000000000000000000000000000081526004018080602001828103825260188152602001807f56616c69642062616e6b206e616d65207265717569726564000000000000000081525060200191505060405180910390fd5b60088251111515614937576040517f08c379a00000000000000000000000000000000000000000000000000000000081526004018080602001828103825260268152602001807f5549442073686f756c642062652067726561746572207468616e20382063686181526020017f726163746572000000000000000000000000000000000000000000000000000081525060400191505060405180910390fd5b600881511115156149d6576040517f08c379a000000000000000000000000000000000000000000000000000000000815260040180806020018281038252602b8152602001807f50617373636f64652073686f756c642062652067726561746572207468616e2081526020017f382063686172616374657200000000000000000000000000000000000000000081525060400191505060405180910390fd5b6060604051908101604052808f8f8080601f01602080910402602001604051908101604052809392919081815260200183838082843782019150505050505081526020018d8d8080601f01602080910402602001604051908101604052809392919081815260200183838082843782019150505050505081526020018b8b8080601f0160208091040260200160405190810160405280939291908181526020018383808284378201915050505050508152509650600287908060018154018082558091505090600182039060005260206000209060030201600090919290919091506000820151816000019080519060200190614ad4929190615e53565b506020820151816001019080519060200190614af1929190615e53565b506040820151816002019080519060200190614b0e929190615e53565b50505050600160038d8d60405180838380828437820191505092505050908152602001604051809103902060006101000a81548160ff02191690831515021790555060019750505050505050509695505050505050565b60008090505b600280549050811015615018576002856040518082805190602001908083835b602083101515614bb05780518252602082019150602081019050602083039250614b8b565b6001836020036101000a0380198251168184511680821785525050505050509050019150506020604051808303816000865af1158015614bf4573d6000803e3d6000fd5b5050506040513d6020811015614c0957600080fd5b81019080805190602001909291905050506000191660028083815481101515614c2e57fe5b90600052602060002090600302016001016040518082805460018160011615610100020316600290048015614c9a5780601f10614c78576101008083540402835291820191614c9a565b820191906000526020600020905b815481529060010190602001808311614c86575b50509150506020604051808303816000865af1158015614cbe573d6000803e3d6000fd5b5050506040513d6020811015614cd357600080fd5b810190808051906020019092919050505060001916148015614e6257506002846040518082805190602001908083835b602083101515614d285780518252602082019150602081019050602083039250614d03565b6001836020036101000a0380198251168184511680821785525050505050509050019150506020604051808303816000865af1158015614d6c573d6000803e3d6000fd5b5050506040513d6020811015614d8157600080fd5b81019080805190602001909291905050506000191660028083815481101515614da657fe5b90600052602060002090600302016002016040518082805460018160011615610100020316600290048015614e125780601f10614df0576101008083540402835291820191614e12565b820191906000526020600020905b815481529060010190602001808311614dfe575b50509150506020604051808303816000865af1158015614e36573d6000803e3d6000fd5b5050506040513d6020811015614e4b57600080fd5b810190808051906020019092919050505060001916145b1561500b57600160009054906101000a900473ffffffffffffffffffffffffffffffffffffffff1673ffffffffffffffffffffffffffffffffffffffff1663da2264bb84846040518363ffffffff167c0100000000000000000000000000000000000000000000000000000000028152600401808060200180602001838103835285818151815260200191508051906020019080838360005b83811015614f16578082015181840152602081019050614efb565b50505050905090810190601f168015614f435780820380516001836020036101000a031916815260200191505b50838103825284818151815260200191508051906020019080838360005b83811015614f7c578082015181840152602081019050614f61565b50505050905090810190601f168015614fa95780820380516001836020036101000a031916815260200191505b50945050505050602060405180830381600087803b158015614fca57600080fd5b505af1158015614fde573d6000803e3d6000fd5b505050506040513d6020811015614ff457600080fd5b810190808051906020019092919050505050615018565b8080600101915050614b6b565b5050505050565b60008090505b6002805490508110156154d2576002856040518082805190602001908083835b60208310151561506a5780518252602082019150602081019050602083039250615045565b6001836020036101000a0380198251168184511680821785525050505050509050019150506020604051808303816000865af11580156150ae573d6000803e3d6000fd5b5050506040513d60208110156150c357600080fd5b810190808051906020019092919050505060001916600280838154811015156150e857fe5b906000526020600020906003020160010160405180828054600181600116156101000203166002900480156151545780601f10615132576101008083540402835291820191615154565b820191906000526020600020905b815481529060010190602001808311615140575b50509150506020604051808303816000865af1158015615178573d6000803e3d6000fd5b5050506040513d602081101561518d57600080fd5b81019080805190602001909291905050506000191614801561531c57506002846040518082805190602001908083835b6020831015156151e257805182526020820191506020810190506020830392506151bd565b6001836020036101000a0380198251168184511680821785525050505050509050019150506020604051808303816000865af1158015615226573d6000803e3d6000fd5b5050506040513d602081101561523b57600080fd5b8101908080519060200190929190505050600019166002808381548110151561526057fe5b906000526020600020906003020160020160405180828054600181600116156101000203166002900480156152cc5780601f106152aa5761010080835404028352918201916152cc565b820191906000526020600020905b8154815290600101906020018083116152b8575b50509150506020604051808303816000865af11580156152f0573d6000803e3d6000fd5b5050506040513d602081101561530557600080fd5b810190808051906020019092919050505060001916145b156154c557600160009054906101000a900473ffffffffffffffffffffffffffffffffffffffff1673ffffffffffffffffffffffffffffffffffffffff1663c244149084846040518363ffffffff167c0100000000000000000000000000000000000000000000000000000000028152600401808060200180602001838103835285818151815260200191508051906020019080838360005b838110156153d05780820151818401526020810190506153b5565b50505050905090810190601f1680156153fd5780820380516001836020036101000a031916815260200191505b50838103825284818151815260200191508051906020019080838360005b8381101561543657808201518184015260208101905061541b565b50505050905090810190601f1680156154635780820380516001836020036101000a031916815260200191505b50945050505050602060405180830381600087803b15801561548457600080fd5b505af1158015615498573d6000803e3d6000fd5b505050506040513d60208110156154ae57600080fd5b8101908080519060200190929190505050506154d2565b8080600101915050615025565b5050505050565b60608060008090505b600280549050811015615979576002866040518082805190602001908083835b6020831015156155275780518252602082019150602081019050602083039250615502565b6001836020036101000a0380198251168184511680821785525050505050509050019150506020604051808303816000865af115801561556b573d6000803e3d6000fd5b5050506040513d602081101561558057600080fd5b810190808051906020019092919050505060001916600280838154811015156155a557fe5b906000526020600020906003020160010160405180828054600181600116156101000203166002900480156156115780601f106155ef576101008083540402835291820191615611565b820191906000526020600020905b8154815290600101906020018083116155fd575b50509150506020604051808303816000865af1158015615635573d6000803e3d6000fd5b5050506040513d602081101561564a57600080fd5b8101908080519060200190929190505050600019161480156157d957506002856040518082805190602001908083835b60208310151561569f578051825260208201915060208101905060208303925061567a565b6001836020036101000a0380198251168184511680821785525050505050509050019150506020604051808303816000865af11580156156e3573d6000803e3d6000fd5b5050506040513d60208110156156f857600080fd5b8101908080519060200190929190505050600019166002808381548110151561571d57fe5b906000526020600020906003020160020160405180828054600181600116156101000203166002900480156157895780601f10615767576101008083540402835291820191615789565b820191906000526020600020905b815481529060010190602001808311615775575b50509150506020604051808303816000865af11580156157ad573d6000803e3d6000fd5b5050506040513d60208110156157c257600080fd5b810190808051906020019092919050505060001916145b1561596c57600160009054906101000a900473ffffffffffffffffffffffffffffffffffffffff1673ffffffffffffffffffffffffffffffffffffffff1663465ca664856040518263ffffffff167c01000000000000000000000000000000000000000000000000000000000281526004018080602001828103825283818151815260200191508051906020019080838360005b8381101561588857808201518184015260208101905061586d565b50505050905090810190601f1680156158b55780820380516001836020036101000a031916815260200191505b5092505050600060405180830381600087803b1580156158d457600080fd5b505af11580156158e8573d6000803e3d6000fd5b505050506040513d6000823e3d601f19601f82011682018060405250602081101561591257600080fd5b81019080805164010000000081111561592a57600080fd5b8281019050602081018481111561594057600080fd5b815185600182028301116401000000008211171561595d57600080fd5b50509291905050509150615979565b80806001019150506154e2565b81925050509392505050565b60608060008090505b600280549050811015615e25576002866040518082805190602001908083835b6020831015156159d357805182526020820191506020810190506020830392506159ae565b6001836020036101000a0380198251168184511680821785525050505050509050019150506020604051808303816000865af1158015615a17573d6000803e3d6000fd5b5050506040513d6020811015615a2c57600080fd5b81019080805190602001909291905050506000191660028083815481101515615a5157fe5b90600052602060002090600302016001016040518082805460018160011615610100020316600290048015615abd5780601f10615a9b576101008083540402835291820191615abd565b820191906000526020600020905b815481529060010190602001808311615aa9575b50509150506020604051808303816000865af1158015615ae1573d6000803e3d6000fd5b5050506040513d6020811015615af657600080fd5b810190808051906020019092919050505060001916148015615c8557506002856040518082805190602001908083835b602083101515615b4b5780518252602082019150602081019050602083039250615b26565b6001836020036101000a0380198251168184511680821785525050505050509050019150506020604051808303816000865af1158015615b8f573d6000803e3d6000fd5b5050506040513d6020811015615ba457600080fd5b81019080805190602001909291905050506000191660028083815481101515615bc957fe5b90600052602060002090600302016002016040518082805460018160011615610100020316600290048015615c355780601f10615c13576101008083540402835291820191615c35565b820191906000526020600020905b815481529060010190602001808311615c21575b50509150506020604051808303816000865af1158015615c59573d6000803e3d6000fd5b5050506040513d6020811015615c6e57600080fd5b810190808051906020019092919050505060001916145b15615e1857600160009054906101000a900473ffffffffffffffffffffffffffffffffffffffff1673ffffffffffffffffffffffffffffffffffffffff1663e8d6221f856040518263ffffffff167c01000000000000000000000000000000000000000000000000000000000281526004018080602001828103825283818151815260200191508051906020019080838360005b83811015615d34578082015181840152602081019050615d19565b50505050905090810190601f168015615d615780820380516001836020036101000a031916815260200191505b5092505050600060405180830381600087803b158015615d8057600080fd5b505af1158015615d94573d6000803e3d6000fd5b505050506040513d6000823e3d601f19601f820116820180604052506020811015615dbe57600080fd5b810190808051640100000000811115615dd657600080fd5b82810190506020810184811115615dec57600080fd5b8151856001820283011164010000000082111715615e0957600080fd5b50509291905050509150615e25565b808060010191505061598e565b81925050509392505050565b6060604051908101604052806060815260200160608152602001606081525090565b828054600181600116156101000203166002900490600052602060002090601f016020900481019282601f10615e9457805160ff1916838001178555615ec2565b82800160010185558215615ec2579182015b82811115615ec1578251825591602001919060010190615ea6565b5b509050615ecf9190615ed3565b5090565b615ef591905b80821115615ef1576000816000905550600101615ed9565b5090565b905600a165627a7a72305820c9e7f0c0037e68d4d87519093bfcf67fac8036d4d6e57910b0c235a01ef1d3bf0029608060405234801561001057600080fd5b50612447806100206000396000f3006080604052600436106100c5576000357c0100000000000000000000000000000000000000000000000000000000900463ffffffff16806304d0623f146100ca57806314b3ee68146101915780631febec6a1461027357806325caa8d714610355578063465ca6641461043757806361b22f41146105195780636932cf8114610626578063aa9bded714610708578063abfcb425146107cf578063becc6f72146108b1578063c244149014610978578063da2264bb14610a3f578063e8d6221f14610b06575b600080fd5b3480156100d657600080fd5b50610177600480360381019080803590602001908201803590602001908080601f0160208091040260200160405190810160405280939291908181526020018383808284378201915050505050509192919290803590602001908201803590602001908080601f0160208091040260200160405190810160405280939291908181526020018383808284378201915050505050509192919290505050610be8565b604051808215151515815260200191505060405180910390f35b34801561019d57600080fd5b506101f8600480360381019080803590602001908201803590602001908080601f0160208091040260200160405190810160405280939291908181526020018383808284378201915050505050509192919290505050610d5e565b6040518080602001828103825283818151815260200191508051906020019080838360005b8381101561023857808201518184015260208101905061021d565b50505050905090810190601f1680156102655780820380516001836020036101000a031916815260200191505b509250505060405180910390f35b34801561027f57600080fd5b506102da600480360381019080803590602001908201803590602001908080601f0160208091040260200160405190810160405280939291908181526020018383808284378201915050505050509192919290505050610f55565b6040518080602001828103825283818151815260200191508051906020019080838360005b8381101561031a5780820151818401526020810190506102ff565b50505050905090810190601f1680156103475780820380516001836020036101000a031916815260200191505b509250505060405180910390f35b34801561036157600080fd5b506103bc600480360381019080803590602001908201803590602001908080601f016020809104026020016040519081016040528093929190818152602001838380828437820191505050505050919291929050505061114c565b6040518080602001828103825283818151815260200191508051906020019080838360005b838110156103fc5780820151818401526020810190506103e1565b50505050905090810190601f1680156104295780820380516001836020036101000a031916815260200191505b509250505060405180910390f35b34801561044357600080fd5b5061049e600480360381019080803590602001908201803590602001908080601f0160208091040260200160405190810160405280939291908181526020018383808284378201915050505050509192919290505050611343565b6040518080602001828103825283818151815260200191508051906020019080838360005b838110156104de5780820151818401526020810190506104c3565b50505050905090810190601f16801561050b5780820380516001836020036101000a031916815260200191505b509250505060405180910390f35b34801561052557600080fd5b5061060c600480360381019080803590602001908201803590602001908080601f0160208091040260200160405190810160405280939291908181526020018383808284378201915050505050509192919290803590602001908201803590602001908080601f0160208091040260200160405190810160405280939291908181526020018383808284378201915050505050509192919290803590602001908201803590602001908080601f016020809104026020016040519081016040528093929190818152602001838380828437820191505050505050919291929050505061153a565b604051808215151515815260200191505060405180910390f35b34801561063257600080fd5b5061068d600480360381019080803590602001908201803590602001908080601f0160208091040260200160405190810160405280939291908181526020018383808284378201915050505050509192919290505050611739565b6040518080602001828103825283818151815260200191508051906020019080838360005b838110156106cd5780820151818401526020810190506106b2565b50505050905090810190601f1680156106fa5780820380516001836020036101000a031916815260200191505b509250505060405180910390f35b34801561071457600080fd5b506107b5600480360381019080803590602001908201803590602001908080601f0160208091040260200160405190810160405280939291908181526020018383808284378201915050505050509192919290803590602001908201803590602001908080601f0160208091040260200160405190810160405280939291908181526020018383808284378201915050505050509192919290505050611930565b604051808215151515815260200191505060405180910390f35b3480156107db57600080fd5b50610836600480360381019080803590602001908201803590602001908080601f0160208091040260200160405190810160405280939291908181526020018383808284378201915050505050509192919290505050611aa6565b6040518080602001828103825283818151815260200191508051906020019080838360005b8381101561087657808201518184015260208101905061085b565b50505050905090810190601f1680156108a35780820380516001836020036101000a031916815260200191505b509250505060405180910390f35b3480156108bd57600080fd5b5061095e600480360381019080803590602001908201803590602001908080601f0160208091040260200160405190810160405280939291908181526020018383808284378201915050505050509192919290803590602001908201803590602001908080601f0160208091040260200160405190810160405280939291908181526020018383808284378201915050505050509192919290505050611c9d565b604051808215151515815260200191505060405180910390f35b34801561098457600080fd5b50610a25600480360381019080803590602001908201803590602001908080601f0160208091040260200160405190810160405280939291908181526020018383808284378201915050505050509192919290803590602001908201803590602001908080601f0160208091040260200160405190810160405280939291908181526020018383808284378201915050505050509192919290505050611e13565b604051808215151515815260200191505060405180910390f35b348015610a4b57600080fd5b50610aec600480360381019080803590602001908201803590602001908080601f0160208091040260200160405190810160405280939291908181526020018383808284378201915050505050509192919290803590602001908201803590602001908080601f0160208091040260200160405190810160405280939291908181526020018383808284378201915050505050509192919290505050611f89565b604051808215151515815260200191505060405180910390f35b348015610b1257600080fd5b50610b6d600480360381019080803590602001908201803590602001908080601f01602080910402602001604051908101604052809392919081815260200183838082843782019150505050505091929192905050506120ff565b6040518080602001828103825283818151815260200191508051906020019080838360005b83811015610bad578082015181840152602081019050610b92565b50505050905090810190601f168015610bda5780820380516001836020036101000a031916815260200191505b509250505060405180910390f35b600082600080826040518082805190602001908083835b602083101515610c245780518252602082019150602081019050602083039250610bff565b6001836020036101000a038019825116818451168082178552505050505050905001915050908152602001604051809103902060080154111515610cd0576040517f08c379a00000000000000000000000000000000000000000000000000000000081526004018080602001828103825260128152602001807f4163636f756e74206e6f7420657869737473000000000000000000000000000081525060200191505060405180910390fd5b826000856040518082805190602001908083835b602083101515610d095780518252602082019150602081019050602083039250610ce4565b6001836020036101000a03801982511681845116808217855250505050505090500191505090815260200160405180910390206003019080519060200190610d529291906122f6565b50600191505092915050565b606081600080826040518082805190602001908083835b602083101515610d9a5780518252602082019150602081019050602083039250610d75565b6001836020036101000a038019825116818451168082178552505050505050905001915050908152602001604051809103902060080154111515610e46576040517f08c379a00000000000000000000000000000000000000000000000000000000081526004018080602001828103825260128152602001807f4163636f756e74206e6f7420657869737473000000000000000000000000000081525060200191505060405180910390fd5b6000836040518082805190602001908083835b602083101515610e7e5780518252602082019150602081019050602083039250610e59565b6001836020036101000a03801982511681845116808217855250505050505090500191505090815260200160405180910390206003018054600181600116156101000203166002900480601f016020809104026020016040519081016040528092919081815260200182805460018160011615610100020316600290048015610f485780601f10610f1d57610100808354040283529160200191610f48565b820191906000526020600020905b815481529060010190602001808311610f2b57829003601f168201915b5050505050915050919050565b606081600080826040518082805190602001908083835b602083101515610f915780518252602082019150602081019050602083039250610f6c565b6001836020036101000a03801982511681845116808217855250505050505090500191505090815260200160405180910390206008015411151561103d576040517f08c379a00000000000000000000000000000000000000000000000000000000081526004018080602001828103825260128152602001807f4163636f756e74206e6f7420657869737473000000000000000000000000000081525060200191505060405180910390fd5b6000836040518082805190602001908083835b6020831015156110755780518252602082019150602081019050602083039250611050565b6001836020036101000a03801982511681845116808217855250505050505090500191505090815260200160405180910390206002018054600181600116156101000203166002900480601f01602080910402602001604051908101604052809291908181526020018280546001816001161561010002031660029004801561113f5780601f106111145761010080835404028352916020019161113f565b820191906000526020600020905b81548152906001019060200180831161112257829003601f168201915b5050505050915050919050565b606081600080826040518082805190602001908083835b6020831015156111885780518252602082019150602081019050602083039250611163565b6001836020036101000a038019825116818451168082178552505050505050905001915050908152602001604051809103902060080154111515611234576040517f08c379a00000000000000000000000000000000000000000000000000000000081526004018080602001828103825260128152602001807f4163636f756e74206e6f7420657869737473000000000000000000000000000081525060200191505060405180910390fd5b6000836040518082805190602001908083835b60208310151561126c5780518252602082019150602081019050602083039250611247565b6001836020036101000a03801982511681845116808217855250505050505090500191505090815260200160405180910390206007018054600181600116156101000203166002900480601f0160208091040260200160405190810160405280929190818152602001828054600181600116156101000203166002900480156113365780601f1061130b57610100808354040283529160200191611336565b820191906000526020600020905b81548152906001019060200180831161131957829003601f168201915b5050505050915050919050565b606081600080826040518082805190602001908083835b60208310151561137f578051825260208201915060208101905060208303925061135a565b6001836020036101000a03801982511681845116808217855250505050505090500191505090815260200160405180910390206008015411151561142b576040517f08c379a00000000000000000000000000000000000000000000000000000000081526004018080602001828103825260128152602001807f4163636f756e74206e6f7420657869737473000000000000000000000000000081525060200191505060405180910390fd5b6000836040518082805190602001908083835b602083101515611463578051825260208201915060208101905060208303925061143e565b6001836020036101000a03801982511681845116808217855250505050505090500191505090815260200160405180910390206004018054600181600116156101000203166002900480601f01602080910402602001604051908101604052809291908181526020018280546001816001161561010002031660029004801561152d5780601f106115025761010080835404028352916020019161152d565b820191906000526020600020905b81548152906001019060200180831161151057829003601f168201915b5050505050915050919050565b6000610120604051908101604052808581526020018481526020016020604051908101604052806000815250815260200160206040519081016040528060008152508152602001602060405190810160405280600081525081526020016020604051908101604052806000815250815260200160206040519081016040528060008152508152602001838152602001428152506000846040518082805190602001908083835b60208310151561160557805182526020820191506020810190506020830392506115e0565b6001836020036101000a03801982511681845116808217855250505050505090500191505090815260200160405180910390206000820151816000019080519060200190611654929190612376565b506020820151816001019080519060200190611671929190612376565b50604082015181600201908051906020019061168e929190612376565b5060608201518160030190805190602001906116ab929190612376565b5060808201518160040190805190602001906116c8929190612376565b5060a08201518160050190805190602001906116e5929190612376565b5060c0820151816006019080519060200190611702929190612376565b5060e082015181600701908051906020019061171f929190612376565b506101008201518160080155905050600190509392505050565b606081600080826040518082805190602001908083835b6020831015156117755780518252602082019150602081019050602083039250611750565b6001836020036101000a038019825116818451168082178552505050505050905001915050908152602001604051809103902060080154111515611821576040517f08c379a00000000000000000000000000000000000000000000000000000000081526004018080602001828103825260128152602001807f4163636f756e74206e6f7420657869737473000000000000000000000000000081525060200191505060405180910390fd5b6000836040518082805190602001908083835b6020831015156118595780518252602082019150602081019050602083039250611834565b6001836020036101000a03801982511681845116808217855250505050505090500191505090815260200160405180910390206000018054600181600116156101000203166002900480601f0160208091040260200160405190810160405280929190818152602001828054600181600116156101000203166002900480156119235780601f106118f857610100808354040283529160200191611923565b820191906000526020600020905b81548152906001019060200180831161190657829003601f168201915b5050505050915050919050565b600082600080826040518082805190602001908083835b60208310151561196c5780518252602082019150602081019050602083039250611947565b6001836020036101000a038019825116818451168082178552505050505050905001915050908152602001604051809103902060080154111515611a18576040517f08c379a00000000000000000000000000000000000000000000000000000000081526004018080602001828103825260128152602001807f4163636f756e74206e6f7420657869737473000000000000000000000000000081525060200191505060405180910390fd5b826000856040518082805190602001908083835b602083101515611a515780518252602082019150602081019050602083039250611a2c565b6001836020036101000a03801982511681845116808217855250505050505090500191505090815260200160405180910390206004019080519060200190611a9a9291906122f6565b50600191505092915050565b606081600080826040518082805190602001908083835b602083101515611ae25780518252602082019150602081019050602083039250611abd565b6001836020036101000a038019825116818451168082178552505050505050905001915050908152602001604051809103902060080154111515611b8e576040517f08c379a00000000000000000000000000000000000000000000000000000000081526004018080602001828103825260128152602001807f4163636f756e74206e6f7420657869737473000000000000000000000000000081525060200191505060405180910390fd5b6000836040518082805190602001908083835b602083101515611bc65780518252602082019150602081019050602083039250611ba1565b6001836020036101000a03801982511681845116808217855250505050505090500191505090815260200160405180910390206005018054600181600116156101000203166002900480601f016020809104026020016040519081016040528092919081815260200182805460018160011615610100020316600290048015611c905780601f10611c6557610100808354040283529160200191611c90565b820191906000526020600020905b815481529060010190602001808311611c7357829003601f168201915b5050505050915050919050565b600082600080826040518082805190602001908083835b602083101515611cd95780518252602082019150602081019050602083039250611cb4565b6001836020036101000a038019825116818451168082178552505050505050905001915050908152602001604051809103902060080154111515611d85576040517f08c379a00000000000000000000000000000000000000000000000000000000081526004018080602001828103825260128152602001807f4163636f756e74206e6f7420657869737473000000000000000000000000000081525060200191505060405180910390fd5b826000856040518082805190602001908083835b602083101515611dbe5780518252602082019150602081019050602083039250611d99565b6001836020036101000a03801982511681845116808217855250505050505090500191505090815260200160405180910390206002019080519060200190611e079291906122f6565b50600191505092915050565b600082600080826040518082805190602001908083835b602083101515611e4f5780518252602082019150602081019050602083039250611e2a565b6001836020036101000a038019825116818451168082178552505050505050905001915050908152602001604051809103902060080154111515611efb576040517f08c379a00000000000000000000000000000000000000000000000000000000081526004018080602001828103825260128152602001807f4163636f756e74206e6f7420657869737473000000000000000000000000000081525060200191505060405180910390fd5b826000856040518082805190602001908083835b602083101515611f345780518252602082019150602081019050602083039250611f0f565b6001836020036101000a03801982511681845116808217855250505050505090500191505090815260200160405180910390206005019080519060200190611f7d9291906122f6565b50600191505092915050565b600082600080826040518082805190602001908083835b602083101515611fc55780518252602082019150602081019050602083039250611fa0565b6001836020036101000a038019825116818451168082178552505050505050905001915050908152602001604051809103902060080154111515612071576040517f08c379a00000000000000000000000000000000000000000000000000000000081526004018080602001828103825260128152602001807f4163636f756e74206e6f7420657869737473000000000000000000000000000081525060200191505060405180910390fd5b826000856040518082805190602001908083835b6020831015156120aa5780518252602082019150602081019050602083039250612085565b6001836020036101000a038019825116818451168082178552505050505050905001915050908152602001604051809103902060060190805190602001906120f39291906122f6565b50600191505092915050565b606081600080826040518082805190602001908083835b60208310151561213b5780518252602082019150602081019050602083039250612116565b6001836020036101000a0380198251168184511680821785525050505050509050019150509081526020016040518091039020600801541115156121e7576040517f08c379a00000000000000000000000000000000000000000000000000000000081526004018080602001828103825260128152602001807f4163636f756e74206e6f7420657869737473000000000000000000000000000081525060200191505060405180910390fd5b6000836040518082805190602001908083835b60208310151561221f57805182526020820191506020810190506020830392506121fa565b6001836020036101000a03801982511681845116808217855250505050505090500191505090815260200160405180910390206006018054600181600116156101000203166002900480601f0160208091040260200160405190810160405280929190818152602001828054600181600116156101000203166002900480156122e95780601f106122be576101008083540402835291602001916122e9565b820191906000526020600020905b8154815290600101906020018083116122cc57829003601f168201915b5050505050915050919050565b828054600181600116156101000203166002900490600052602060002090601f016020900481019282601f1061233757805160ff1916838001178555612365565b82800160010185558215612365579182015b82811115612364578251825591602001919060010190612349565b5b50905061237291906123f6565b5090565b828054600181600116156101000203166002900490600052602060002090601f016020900481019282601f106123b757805160ff19168380011785556123e5565b828001600101855582156123e5579182015b828111156123e45782518255916020019190600101906123c9565b5b5090506123f291906123f6565b5090565b61241891905b808211156124145760008160009055506001016123fc565b5090565b905600a165627a7a723058201df1f6691f7a3504fb72954ca866b690f9b102debb5ef4bebe5478bf01829ebe0029",
  "source": "pragma solidity ^0.4.23;\r\n\r\nimport \"./AccountInfo.sol\";\r\n\r\n\r\ncontract KYC  {\r\n    address private owner;\r\n    \r\n    AccountInfo accInfo;\r\n    \r\n    struct Bank {\r\n        string name;\r\n        string uid;\r\n        string passcode;\r\n    }\r\n    \r\n    Bank[] private banks;\r\n    \r\n    mapping(string => bool) uniqueUid;\r\n    \r\n    mapping(string => bool) uniqueNid;\r\n    \r\n    constructor() public {\r\n        owner = msg.sender;\r\n        accInfo = new AccountInfo();\r\n    }\r\n    \r\n    modifier onlyOwner {\r\n        require(msg.sender == owner, \"Not Authorized\");\r\n        _;\r\n    }\r\n    \r\n    modifier uniqueAccount(string nid) {\r\n        require(uniqueNid[nid] == false, \"Account exists\");\r\n        _;\r\n    }\r\n    \r\n    \r\n    modifier validBankInput(string name, string uid, string pass) {\r\n        bytes memory n = bytes(name);\r\n        bytes memory u = bytes(uid);\r\n        bytes memory p = bytes(pass);\r\n        require(uniqueUid[uid] == false, \"UID exists\");\r\n        require(n.length > 0, \"Valid bank name required\");\r\n        require(u.length > 8, \"UID should be greater than 8 character\");\r\n        require(p.length > 8, \"Passcode should be greater than 8 character\");\r\n        _;\r\n    }\r\n    \r\n    // bank management related functions\r\n    \r\n    function registerNewBank(string name, string uid, string passcode) external \r\n    onlyOwner validBankInput(name, uid, passcode) returns(bool) {\r\n        Bank memory newBank = Bank(name, uid, passcode);\r\n        banks.push(newBank);\r\n        uniqueUid[uid] = true;\r\n        return true;\r\n    }\r\n    \r\n    function getBankCount() public view onlyOwner returns(uint){\r\n        return banks.length;\r\n    }\r\n    \r\n    function getBankInfo(string uid, string passcode) external view returns(string) {\r\n        Bank memory currentBank;\r\n        for(uint i = 0; i < banks.length; i++){\r\n            if(sha256(bytes(banks[i].uid)) == sha256(bytes(uid)) && sha256(bytes(banks[i].passcode)) == sha256(bytes(passcode))){\r\n                currentBank = banks[i];\r\n                break;\r\n            }\r\n        }\r\n        return currentBank.name;\r\n    }\r\n    \r\n    // Account Related functions\r\n    \r\n    function createAccount(string bankUid, string bankPass, string nid, string name)\r\n    public uniqueAccount(nid){\r\n        for(uint i = 0; i < banks.length; i++){\r\n            if(sha256(bytes(banks[i].uid)) == sha256(bytes(bankUid)) && sha256(bytes(banks[i].passcode)) == sha256(bytes(bankPass))){\r\n                accInfo.accountInit(name, nid, banks[i].name);\r\n                uniqueNid[nid] = true;\r\n                break;\r\n            }\r\n        }\r\n    }\r\n    \r\n    // setters\r\n    \r\n    function setAccountDOB(string bankUid, string bankPass, string nid, string dob) public {\r\n        for(uint i = 0; i < banks.length; i++){\r\n            if(sha256(bytes(banks[i].uid)) == sha256(bytes(bankUid)) && sha256(bytes(banks[i].passcode)) == sha256(bytes(bankPass))){\r\n                accInfo.setDOB(nid, dob);\r\n                break;\r\n            }\r\n        }\r\n    }\r\n    \r\n    function setAccountMobileNumber(string bankUid, string bankPass, string nid, string mobile) public {\r\n        for(uint i = 0; i < banks.length; i++){\r\n            if(sha256(bytes(banks[i].uid)) == sha256(bytes(bankUid)) && sha256(bytes(banks[i].passcode)) == sha256(bytes(bankPass))){\r\n                accInfo.setMobileNumber(nid, mobile);\r\n                break;\r\n            }\r\n        }\r\n    }\r\n    \r\n    function setAccountCurrentAddress(string bankUid, string bankPass, string nid, string caddress) public {\r\n        for(uint i = 0; i < banks.length; i++){\r\n            if(sha256(bytes(banks[i].uid)) == sha256(bytes(bankUid)) && sha256(bytes(banks[i].passcode)) == sha256(bytes(bankPass))){\r\n                accInfo.setCurrentAddress(nid, caddress);\r\n                break;\r\n            }\r\n        }\r\n    }\r\n    \r\n    function setAccountFatherName(string bankUid, string bankPass, string nid, string fatherName) public {\r\n        for(uint i = 0; i < banks.length; i++){\r\n            if(sha256(bytes(banks[i].uid)) == sha256(bytes(bankUid)) && sha256(bytes(banks[i].passcode)) == sha256(bytes(bankPass))){\r\n                accInfo.setFatherName(nid, fatherName);\r\n                break;\r\n            }\r\n        }\r\n    }\r\n    \r\n    function setAccountGender(string bankUid, string bankPass, string nid, string gender) public {\r\n        for(uint i = 0; i < banks.length; i++){\r\n            if(sha256(bytes(banks[i].uid)) == sha256(bytes(bankUid)) && sha256(bytes(banks[i].passcode)) == sha256(bytes(bankPass))){\r\n                accInfo.setGender(nid, gender);\r\n                break;\r\n            }\r\n        }\r\n    }\r\n    \r\n    // getters\r\n    \r\n    function getAccountName(string bankUid, string bankPass, string nid) public view returns(string) {\r\n        string memory str;\r\n        for(uint i = 0; i < banks.length; i++){\r\n            if(sha256(bytes(banks[i].uid)) == sha256(bytes(bankUid)) && sha256(bytes(banks[i].passcode)) == sha256(bytes(bankPass))){\r\n                str = accInfo.getName(nid);\r\n                break;\r\n            }\r\n        }\r\n        return str;\r\n    }\r\n    \r\n    function getAccountDOB(string bankUid, string bankPass, string nid) public view returns(string) {\r\n        string memory str;\r\n        for(uint i = 0; i < banks.length; i++){\r\n            if(sha256(bytes(banks[i].uid)) == sha256(bytes(bankUid)) && sha256(bytes(banks[i].passcode)) == sha256(bytes(bankPass))){\r\n                str = accInfo.getDOB(nid);\r\n                break;\r\n            }\r\n        }\r\n        return str;\r\n    }\r\n    \r\n    function getAccountMobileNumber(string bankUid, string bankPass, string nid) public view returns(string) {\r\n        string memory str;\r\n        for(uint i = 0; i < banks.length; i++){\r\n            if(sha256(bytes(banks[i].uid)) == sha256(bytes(bankUid)) && sha256(bytes(banks[i].passcode)) == sha256(bytes(bankPass))){\r\n                str = accInfo.getMobileNumber(nid);\r\n                break;\r\n            }\r\n        }\r\n        return str;\r\n    }\r\n    \r\n    function getAccountCurrentAddress(string bankUid, string bankPass, string nid) public view returns(string) {\r\n        string memory str;\r\n        for(uint i = 0; i < banks.length; i++){\r\n            if(sha256(bytes(banks[i].uid)) == sha256(bytes(bankUid)) && sha256(bytes(banks[i].passcode)) == sha256(bytes(bankPass))){\r\n                str = accInfo.getCurrentAddress(nid);\r\n                break;\r\n            }\r\n        }\r\n        return str;\r\n    }\r\n    \r\n    function getAccountFatherName(string bankUid, string bankPass, string nid) public view returns(string) {\r\n        string memory str;\r\n        for(uint i = 0; i < banks.length; i++){\r\n            if(sha256(bytes(banks[i].uid)) == sha256(bytes(bankUid)) && sha256(bytes(banks[i].passcode)) == sha256(bytes(bankPass))){\r\n                str = accInfo.getFatherName(nid);\r\n                break;\r\n            }\r\n        }\r\n        return str;\r\n    }\r\n    \r\n    function getAccountGender(string bankUid, string bankPass, string nid) public view returns(string) {\r\n        string memory str;\r\n        for(uint i = 0; i < banks.length; i++){\r\n            if(sha256(bytes(banks[i].uid)) == sha256(bytes(bankUid)) && sha256(bytes(banks[i].passcode)) == sha256(bytes(bankPass))){\r\n                str = accInfo.getGender(nid);\r\n                break;\r\n            }\r\n        }\r\n        return str;\r\n    }\r\n    \r\n    function getAccountSeederBank(string bankUid, string bankPass, string nid) public view returns(string) {\r\n        string memory str;\r\n        for(uint i = 0; i < banks.length; i++){\r\n            if(sha256(bytes(banks[i].uid)) == sha256(bytes(bankUid)) && sha256(bytes(banks[i].passcode)) == sha256(bytes(bankPass))){\r\n                str = accInfo.getSeederBank(nid);\r\n                break;\r\n            }\r\n        }\r\n        return str;\r\n    }\r\n    \r\n}",
  "sourcePath": "E:\\Ethereum Artifacts\\E-KYC\\smart-contract-v3\\contracts\\KYC.sol",
  "compiler": {
    "name": "solc",
    "version": "0.4.24+commit.e67f0147.Emscripten.clang"
  },
  "schemaVersion": "2.0.1",
  "updatedAt": "2018-10-30T11:58:00.115Z"
}